:020000040800F2
:10000000D8060020A9050008650400086704000858
:100010006B0400086F04000873040008000000006F
:10002000000000000000000000000000770400084D
:1000300079040008000000007B0400087D0400082B
:10004000C3050008C3050008C3050008C305000870
:10005000C3050008C3050008C3050008C305000860
:10006000C3050008C3050008C3050008C305000850
:10007000C3050008C3050008C3050008C305000840
:10008000C3050008C3050008C3050008C305000830
:10009000C3050008C3050008C3050008C305000820
:1000A000C3050008C3050008C3050008C305000810
:1000B000C3050008C3050008C3050008C305000800
:1000C000C3050008C3050008C3050008C3050008F0
:1000D000C3050008C3050008C3050008C3050008E0
:1000E000C3050008C3050008C3050008C3050008D0
:1000F000C3050008C3050008C3050008C3050008C0
:10010000C3050008C3050008C3050008C3050008AF
:10011000C3050008C3050008C3050008C30500089F
:10012000C3050008C3050008C3050008C30500088F
:10013000C3050008C3050008C3050008C30500087F
:10014000C3050008C3050008C3050008C30500086F
:10015000C3050008C3050008C3050008C30500085F
:10016000C3050008C3050008C3050008C30500084F
:10017000C3050008C3050008C3050008000000000F
:10018000C3050008C305000800F002F800F03CF8C1
:100190000AA090E8000C82448344AAF10107DA45E2
:1001A00001D100F031F8AFF2090EBAE80F0013F0F8
:1001B000010F18BFFB1A43F001031847EC5600006B
:1001C0000C570000103A24BF78C878C1FAD85207FB
:1001D00024BF30C830C144BF04680C6070470000C1
:1001E0000023002400250026103A28BF78C1FBD840
:1001F000520728BF30C148BF0B6070471FB503F0DE
:1002000024FD1FBD10B510BD03F0E6FC1146FFF73D
:10021000F5FF00F009F803F004FD03B4FFF7F2FF67
:1002200003BC03F00BFD00001CB5012401F0B9F97B
:100230000723022208214FF4A87003F0B6FB03F055
:1002400013FC00F0D1F900F019FA00F03FFA00F0C9
:10025000D8FD4FF478406149088061A318220A2133
:10026000084601F08BF863A310222821142001F026
:1002700085F864A3182250211E2001F07FF865A3A1
:1002800010226E21322001F079F867A3102282211A
:10029000322001F073F89FE0002000F038FA674840
:1002A0000078012871D16EE00C2C3CD2DFE804F01C
:1002B0003B060A0E13181D22272C3136002000F0B1
:1002C000B6FC30E01F2000F0B2FC2CE04FF4784088
:1002D00000F0ADFC27E04FF61F0000F0A8FC22E084
:1002E0004FF4FC6000F0A3FC1DE047F6FF7000F047
:1002F0009EFC18E04FF6E07000F099FC13E04FF61A
:10030000074000F094FC0EE048F2304000F08FFC13
:1003100009E04BF6404000F08AFC04E04FF6FF7025
:1003200000F085FC00BF00BF601CC4B244480068F8
:1003300008B9012000E00020414908604FF47A70BC
:1003400003F0BCFB0C2C1ED100243EA318220A2172
:10035000084601F013F827A310222821142001F0E9
:100360000DF828A3182250211E2001F007F829A318
:1003700010226E21322001F001F82BA310228221DD
:10038000322000F0FBFF002C8ED12C480078022890
:100390001FD14FF6FF7000F04AFC2FA31822142142
:1003A000084600F0EBFF42F2A505002018210623C5
:1003B0002A46CDE900103C21282001F02CF801202C
:1003C000182106232A46CDE900105A21282001F0E1
:1003D00022F8052003F072FB5EE700000A0000200F
:1003E000496C6C756D696E6174692053544D33327C
:1003F00000000000417574686F723A436C65766561
:1004000072000000342E5446544C4344205445534B
:10041000540000004B4559303A53637265656E20B5
:1004200054657374000000004B4559313A4E756DA8
:10043000626572205465737400000000040000209F
:100440008C024242496C6C756D696E61746920530F
:10045000544D3332463400004E756D62657220543F
:1004600065737400704700BFFEE700BFFEE700BF82
:10047000FEE700BFFEE770477047704710B501F018
:10048000C7F810BD3F48006840F470003D4908605F
:100490003D48006840F001003B49086000203A49AF
:1004A0000831086038480068384908403649086013
:1004B0003748091D0860081F006820F48020091FC4
:1004C0000860002030490C3108604FF000602D4971
:1004D00080390860704770B5002000220223002494
:1004E0000221294D08352D6805F00C0020B10428A3
:1004F00006D0082834D107E0264D274E356033E07A
:10050000264D254E35602FE01F4D2D1D2D68C5F35E
:1005100080541D4D2D1D2D6805F03F0154B11F4D18
:10052000B5FBF1F5184E361D3668C6F3881605FB87
:1005300006F209E0174DB5FBF1F5134E361D36688E
:10054000C6F3881605FB06F20F4D2D1D2D68C5F369
:1005500001456D1C6B00B2FBF3F50F4E356003E0F7
:100560000C4D0D4E356000BF00BF074D08352D689E
:10057000C5F303150A4E705D074D2D68C540064E44
:10058000356070BD88ED00E000380240FFFFF6FEE8
:10059000103000240024F4000000002000127A0033
:1005A000543C000870477047094880470948004795
:1005B000FEE7FEE7FEE7FEE7FEE7FEE7FEE7FEE713
:1005C000FEE7FEE704480549054A064B7047000070
:1005D0008504000889010008D8000020D806002002
:1005E000D8020020D802002000B587B000BF00204C
:1005F00001901F48006840F010001D49086008463F
:10060000006800F01000019000BF00BF00BF002094
:1006100001900846006840F0400008600846006805
:1006200000F04000019000BF00BF182002900120A0
:10063000039004900320059002A90E4801F072FA7D
:100640004FF40070029002A90B4801F06BFA0122EE
:100650000821084801F0F5FB01221021054801F0AE
:10066000F0FB01225102044801F0EBFB07B000BD92
:1006700030380240001002400018024000B587B038
:1006800000BF002001900F48006840F040000D4975
:1006900008600846006800F04000019000BF00BFFD
:1006A000802002900120039004900320059002A96D
:1006B000054801F037FA00228021034801F0C1FB10
:1006C00007B000BD303802400018024000B587B0C6
:1006D00000BF002001903E48006840F020003C49E7
:1006E00008600846006800F02000019000BF00BFCD
:1006F0004FF47070029000200390012004900320BA
:10070000059002A9334801F00DFA07B000BD0021A1
:10071000314A11703149096861B13049091F0968CE
:1007200041B12E490839096821B12C490C390968B1
:1007300000293CD12949096819B90121284A1170B9
:1007400016E02649091F096819B90221244A1170C7
:100750000EE022490839096819B90321204A1170AD
:1007600006E01E490C39096811B904211C4A1170B0
:100770001B4909781B4A1278914210D11A490988FD
:10078000491C194A118016490978184A1170E8B9AC
:1007900015490988012919DD0021117016E0002191
:1007A000114A11800E4909780E4A11700EE00E4967
:1007B0000988022903DD0A490978074A11700021D6
:1007C000084A1170084A1180084A117070470000E9
:1007D00030380240001402400500002024824242CA
:1007E000080000200900002006000020040000206E
:1007F000F64A1080921C1180704710B50446F348E9
:100800000480042003F038F9F048801C008810BDF3
:1008100000BF011EA0F10102D0B2FAD17047EC482E
:100820000088EA49088070472920E8490880704715
:100830002820E6490880704730B58418641EA2B2AB
:10084000CC18641EA3B2E34C24786CBBE24C248821
:1008500041F66315AC4227D1E04C2488A41A241A2F
:10086000A0B2CC18641EA3B2DD4C2488D74D2C80D6
:100870000412AD1C2C80C4B22C808418641EC4F3F6
:100880000F242C808418641EE4B22C80D54C24885C
:10089000AD1E2C800C12AD1C2C80CCB22C801C12F6
:1008A0002C80DCB22C8019E0CD4C2488C74D2C80E4
:1008B0000412AD1C2C80C4B22C8014122C80D4B233
:1008C0002C80C84C2488AD1E2C800C12AD1C2C80B2
:1008D000CCB22C801C122C80DCB22C8030BD70B5C8
:1008E000054600240026BB480078012805D1BA48F7
:1008F000008849F24131884208D0B6480078F0B902
:10090000B548008841F66311884218D1082D15D2E8
:10091000DFE805F00406080A0C0E101206250DE0AB
:1009200007250BE0042509E0052507E0012505E082
:10093000002503E0032501E0022500BF00BF082DCC
:100940001CD2DFE805F00406090C0F12151800BFD1
:1009500014E044F0800411E044F040040EE044F060
:10096000C0040BE044F0200408E044F0600405E01B
:1009700044F0A00402E044F0E00400BF00BF3626CB
:100980009548008849F24131884201D144F0080479
:1009900021463046FFF72CFF934803888F48028892
:1009A00000210846FFF748FF70BD10B504468CBB18
:1009B0000020884908708848008849F241318842FF
:1009C00010D12C20824908802A20854908802B20BC
:1009D00084490880F020814908804FF4A070824942
:1009E000088049E07C48008841F66311884243D181
:1009F0002C20774908802B20794908802A207949C2
:100A000008804FF4F070754908804FF448707649BB
:100A1000088031E0FFE701206E4908706E480088C9
:100A200049F24131884210D12C20694908802A209E
:100A30006B4908802B206B4908804FF4A0706749F0
:100A40000880F0206849088016E06348008841F675
:100A50006311884210D12C205D4908802A2060490A
:100A600008802B205F4908804FF448705B4908805C
:100A70004FF4F0705C4908800020FFF730FF10BD94
:100A8000554A128849F241339A4212D1544A128887
:100A90004E4B1A8002129B1C1A80C2B21A80514A15
:100AA00012889B1E1A800A129B1C1A80CAB21A80D6
:100AB00042E0494A128841F663139A423CD1454AC2
:100AC00012788AB9454A1288521E121A90B2444AC4
:100AD00012883E4B1A8000229B1C1A801A80021238
:100AE0001A80C2B21A8013E03D4A1288374B1A802E
:100AF00002129B1C1A80C2B21A80384A1288521EF7
:100B0000C2F30F221A80354A1278521ED2B21A80CE
:100B1000344A12882D4B1A800A129B1C1A80CAB2C2
:100B20001A80314A1288521EC2F30F221A802E4AAE
:100B30001278521ED2B21A8070473EB504460D4656
:100B4000002002900190009029462046FFF798FF70
:100B50002E201E490880881C008802901E480088AC
:100B600041F66311884202D1BDF808003EBD022063
:100B7000FFF74EFE1548801C00880090BDF8080065
:100B8000C0B20190BDF804004FF6FF7101EA0020E9
:100B90000190BDF80800C012C002BDF8041089120F
:100BA00040EA4110BDF8001040EAE120DEE730B530
:100BB00004460D4629462046FFF762FFFFF72FFE49
:100BC0000A4800880149891C088030BDFE1F006C5E
:100BD00016000020100000200E000020120000204F
:100BE000180000201A000020140000200A00002035
:100BF00070B505460E46144631462846FFF7D7FF26
:100C0000FE480088FE490880881C048070BDBE2113
:100C1000FB4A11800521921C118011460880012198
:100C20001180FF211180002111801180704770B563
:100C3000044600250026F3480088F349098800FB94
:100C400001F600210846FFF71BFFFFF7E8FD00BF94
:100C500003E0EB48801C04806D1CB542F9D370BDE5
:100C600010B586B0044600BF00200090E748006839
:100C700040F00100E54908600846006800F0010006
:100C8000009000BF00BF00BF00200090DF48083880
:100C9000006840F00800DD4908390860084600682F
:100CA00000F00800009000BF00BF00BF00200090CF
:100CB0000846006840F0100008600846006800F030
:100CC0001000009000BF00BF00BF00200090084649
:100CD000006840F0200008600846006800F020002E
:100CE000009000BF00BF00BF0020009008460068D1
:100CF00040F0400008600846006800F040000090A6
:100D000000BF00BF4CF2337001900220029001201E
:100D10000390032004900C20059001A9BC4800F02A
:100D200001FF4FF68070019001A9BA4800F0FAFE69
:100D30000420019001A9B84800F0F4FE4FF480505F
:100D4000019001A9B44800F0EDFE06B010BD00B559
:100D50008FB04FF02040B1490860B148486006208C
:100D600088600021AD48C16001611021416100210E
:100D70008161C16141624FF4805181620021C16291
:100D80004FF4804101630021416381634FF480117E
:100D9000C1630F200890002009903C200A90002099
:100DA0000E900490092001900020029008200390EA
:100DB0000020079001AA08A9984802F026FB3220DB
:100DC00002F07CFE0FB000BDD3218D4A1180911C32
:100DD0000888088808884FF6FF7101EA0020911CF6
:100DE000098808437047A121854A1180911C088811
:100DF00008884FF6FF7101EA0020911C098808431A
:100E0000704700B587B000BF002001907F480838C8
:100E1000006840F020007D490839086008460068F5
:100E200000F02000019000BF00BF081502900120D3
:100E3000039004900320059002A97A4800F072FE06
:100E4000FFF785FFFFF7C0FF774908800846008855
:100E500049F2413188420DD0FFF7C5FF7249088041
:100E60000846008845F26171884203D141F663105B
:100E70006D4908806C48008849F2413188421DD193
:100E800067481830006820F00F004FF02041C1F88B
:100E90001C010846D0F81C0120F47060C1F81C0148
:100EA0000846D0F81C0140F00300C1F81C010846B8
:100EB000D0F81C0140F40070C1F81C015A480088A9
:100EC00049F2413188427DD1CF204D490880002030
:100ED000891C0880C120088030200880ED20891EF0
:100EE00008806420891C0880032008801220088064
:100EF00081200880E820891E08808520891C0880C0
:100F0000102008807A200880CB20891E0880392094
:100F1000891C08802C20088000200880342008804C
:100F200002200880F720891E08802020891C088064
:100F3000EA20891E08800020891C08800880C020C3
:100F4000891E08801B20891C0880C120891E0880FA
:100F50000120891C0880C520891E08803020891C3A
:100F600008800880C720891E0880B720891C088057
:100F70003620891E08804820891C08803A20891E56
:100F800008805520891C0880B120891E0880002017
:100F9000891C08801A200880B620891E08800A2033
:100FA000891C0880A2200880F220891E0880002069
:100FB000891C08802620891E08800120891C088041
:100FC000E02000E079E0891E08800F20891C08805D
:100FD0002A20088028200880082008800E20088009
:100FE0000820088054200880A92008804320088019
:100FF0000A2008800F200880002017E0160000203B
:10100000FE1F006C1200002014000020383802403F
:10101000000C02400010024000180240280000208E
:10102000040100A0001402400E0000200880088087
:1010300008800880E120891E08800020891C088023
:1010400015200880172008800720088011200880BC
:10105000062008802B200880562008803C2008802D
:1010600005200880102008800F2008803F2008807D
:1010700008800F2008802B20891E08800020891CF2
:1010800008800880012008803F2008802A20891ECF
:1010900008800020891C088008800880EF200880D4
:1010A0001120891E0880782002F008FD2920FB49C4
:1010B00008800120FA49086098E0FA48008841F663
:1010C00063118842F8D1E220F44908801D20891C70
:1010D00008800220088004200880642002F0CCFCF4
:1010E000E020EE4908800120891C08800A2002F0D7
:1010F000E5FCE020E94908800320891C08800C20D9
:1011000002F0DCFC0120E54908800A2002F0D6FC50
:10111000E620E24908802F20891C0880FF200880F3
:101120000880B020891E08802020891C08800020AB
:1011300008800320088040F21F30088001200880CA
:1011400040F2DF10088000200880B420891E08804B
:101150000420891C088040F21F400880002008807D
:101160002E20088000200880088008800880B62093
:10117000891E08800220891C08804FF403700880B3
:101180000020088017200880152008800020088093
:101190000880F020891E08800320891C08802920EF
:1011A000891E0880D02008800020891C0880BE206D
:1011B000891E08800520891C0880FE2008800120E7
:1011C00008800020088008800880B820891E0880D8
:1011D0000320891C088001200880BA20891E08800D
:1011E0000120891C0880FF20FFF711FD0020FFF778
:1011F000DCFB4FF6FF70FFF71AFD07B000BD2DE9CD
:10120000F04F05460E4617469846DDF824A04FF0ED
:10121000000B781B401C1FFA80FB344614E021466B
:101220002846FFF72DFCFFF7FAFA4FF0000907E018
:101230009A48801CA0F800A009F101001FFA80F96B
:10124000D945F5DB601C84B24445E8DDBDE8F08F8C
:101250002DE9F84F07460D4690469946DDF828B02F
:10126000A8EB0700401C80B20090A9EB0500401CD1
:101270001FFA80FA002416E0281981B23846FFF7D9
:10128000FFFBFFF7CCFA002608E004FB0A603BF8FE
:1012900010008249891C0880701C86B20098864222
:1012A000F3DB601C84B25445E6DBBDE8F88F2DE922
:1012B000FF4F074616461C46BB460C2C01D19846EC
:1012C0000AE0102C01D1A04606E0182C02D14FF004
:1012D000300801E0BDE8FF8FA6F12000C6B200256E
:1012E00048E00C2C07D106EB46006F4901EB80006B
:1012F00010F8059010E0102C05D16C4800EB06109A
:1013000010F8059008E0182C06D106EB4600684955
:1013100001EB001010F805904FF0000A24E009F0EE
:10132000010030B16348028838460199FFF760FC3C
:1013300005E06148028838460199FFF759FC4FEAF9
:101340006909781C87B2A7EB0B0104EBD472B1EBEF
:10135000620F05D15F460198401C80B2019006E003
:101360000AF1010000F0FF0ABAF1080FD7DB00BF55
:10137000681CC5B24545B4DB00BFABE7F0B5064617
:101380000F4615461C4611E022782B46394630465A
:10139000FFF78DFF284605EBD07106EB61018EB299
:1013A00046480088864200DB06E0641C207820283E
:1013B00002DB20787E28E7DD00BFF0BD2DE9F04F8D
:1013C00004460D4616461F46DDE909893948B0F83E
:1013D00000A03948B0F800B03648A0F80080364880
:1013E000A0F800903B46324629462046FFF7C6FF4C
:1013F0003048A0F800A03048A0F800B0BDE8F08F59
:1014000010B50246012000E050430B1EA1F101047B
:10141000E1B2F9D110BD2DE9FF4F81B007469046EA
:101420001E460E9CC3464FF0000906E00A20BBFB97
:10143000F0FB09F1010000F0FF09BBF1000FF5D14D
:10144000B14508DD1EA3224638460299FFF796FFF4
:1014500005B0BDE8F08F002553E0A6EB0900A842D7
:1014600032DD0F9860B104EBD471491001FB0571B6
:1014700088B22346302200940299FFF718FF3EE01D
:1014800004EBD471491001FB057188B22346202278
:1014900000940299FFF70BFF31E00000FE1F006C83
:1014A000A88242420E0000206C3C0008E040000888
:1014B000D04600080A0000200C0000201200002086
:1014C0004552524F52000000701B401EC1B20A200C
:1014D000FFF796FFB8FBF0F00A21B0FBF1F201FB39
:1014E000120A04EBD471491001FB057188B20AF1AC
:1014F0003001CAB2234600940299FFF7D8FE681C57
:10150000C5B2B542A9DB00BFA2E72DE9FF4F82B00B
:1015100004460D461646DDE91189109F0E48B0F8C5
:1015200000A00E48B0F800B00B48A0F800800B48AF
:10153000A0F800900F98CDE90007324629462046D2
:10154000059BFFF768FF0448A0F800A00348A0F837
:1015500000B006B0BDE8F08F0A0000200C000020AB
:10156000704770B50446714800784FF47A71B1FB4A
:10157000F0F06F490968B1FBF0F5284600F099F9E1
:1015800008B1012070BD102C07D200222146501E48
:1015900000F002F96748046001E00120F2E7002052
:1015A000F0E710B56448006840F4007062490860D4
:1015B0000846006840F480600860052000F0DAF812
:1015C0000F20FFF7CEFFFEF7EDFF002010BD7047A4
:1015D00010B54FF0FF305949086000200860401EE8
:1015E000091D086000200860401E54491039086039
:1015F00000200860401E091D086000200860401E91
:10160000091D086000200860FEF7CDFF002010BD16
:101610004B480068454909780844494908607047C3
:1016200047480068704743480068704770B50446F3
:1016300000253E480078A04206D03C4804703D4852
:101640000068FFF78EFF0546284670BD37480078D2
:10165000704770B50446FFF7E3FF06462546681C51
:1016600010B132480078054400BFFFF7D9FF801B56
:10167000A842FAD370BD4FF0E020006920F00200CC
:101680004FF0E021086170474FF0E020006940F022
:1016900002004FF0E021086170472A4870472A484D
:1016A0000068000C704728480068C0F30B007047C2
:1016B0002548406840F001002349486070472248AF
:1016C000406820F001002049486070471E4840688B
:1016D00040F002001C49486070471B48406820F0F9
:1016E00002001949486070471748406840F00400FC
:1016F0001549486070471448406820F004001249BA
:1017000048607047012011490860704700200F4968
:10171000086070470E48006870470D48001D00685B
:1017200070470B4808300068704700002400002014
:101730000000002020000020003C02402038024031
:101740001C00002000060701002004E000042742DE
:10175000107AFF1F10B5002804DB0A07130EEC4AAD
:10176000135406E00A07140EEA4A00F00F031B1F89
:10177000D45410BD00BF00F00702E64B0C3B1968C3
:101780004FF6FF031940E44B0B4343EA0221E14BC0
:101790000C3B196000BF70472DE9F05F80460D4695
:1017A0001646002700F0AEF9074639462A4633466A
:1017B00001F00700C0F1070ABAF1040F02D94FF097
:1017C000040A01E0C0F1070AD14600F1040ABAF1A7
:1017D000070F02D24FF0000A01E0A0F1030AD4463D
:1017E0004FF0010A0AFA09FAAAF1010A0AEA020A02
:1017F0000AFA0CFA4FF0010B0BFA0CFBABF1010BE0
:101800000BEA030B4AEA0B0421464046FFF7A2FF0E
:10181000BDE8F09F01460846002809DB00F01F03E1
:1018200001229A4043099B0003F1E023C3F8002101
:1018300000BF704710B501460846002817DB00F0CE
:101840001F0301229A40B54B440943F8242000BFEE
:1018500000BF00BFBFF34F8F00BF00BF00BF00BF7E
:1018600000BF00BFBFF36F8F00BF00BF00BF00BF4E
:1018700010BD00BF00BF00BF00BF00BFBFF34F8F50
:1018800000BF00BF00BFA3480C38006800F4E06050
:10189000A1490843001D9F490C39086000BF00BFE3
:1018A00000BFBFF34F8F00BF00BF00BF00BF00BF2E
:1018B000FDE770B504462546681EB0F1807F01D370
:1018C00001200FE0681E4FF0E02148610F214FF02A
:1018D000FF30FFF73FFF00204FF0E0218861072035
:1018E0000861002070BD00BF00BF00BFBFF35F8F65
:1018F00000BF00BF00BF87480C30006820F4803074
:1019000084490C310860002082497C3108607047AE
:1019100040F001017F4A7C3211607E490C31096838
:1019200041F480317B4A0C32116000BF00BF00BF20
:10193000BFF34F8F00BF00BF00BF00BF00BF00BF9D
:10194000BFF36F8F00BF00BF00BF70474178714A7F
:10195000803211600178F9B1121D41681160017B7C
:101960000907C27A41EA0261827A41EAC241427BB6
:1019700041EA8241827B41EA4241C27B41EA024123
:10198000427A41EA0221027A41EA42010278114395
:10199000604A8832116005E000215E4A843211609D
:1019A000121D1160704710B500F0ACF810BD2DE9A4
:1019B000F04304462046002803DB554F3F5C3F09B7
:1019C00007E0544F00F00F0CACF1040C17F80C704A
:1019D0003F093D460E4606F00700C0F10708B8F182
:1019E000040F02D94FF0040801E0C0F10708C44613
:1019F00000F10408B8F1070F02D24FF0000801E02F
:101A0000A0F10308474625FA07F84FF0010909FA43
:101A10000CF9A9F1010908EA0908C2F800804FF0A1
:101A2000010808FA07F8A8F1010808EA0508C3F850
:101A3000008000BFBDE8F08310B5014608460028CD
:101A400008DB00F01F0301229A40344B8033440925
:101A500043F8242000BF10BD10B5014608460028F9
:101A60000EDB2E4A8032430952F8232000F01F0477
:101A70000123A3401A400AB1012202E0002200E043
:101A80000022104610BD10B501460846002807DBAD
:101A900000F01F0301229A40214B440943F82420FF
:101AA00000BF10BD10B50146084600280EDB1C4AD9
:101AB0008032430952F8232000F01F040123A34081
:101AC0001A400AB1012202E0002200E00022104682
:101AD00010BD042808D14FF0E021096941F004014C
:101AE0004FF0E022116107E04FF0E021096921F099
:101AF00004014FF0E02211617047704710B5FFF705
:101B0000FCFF10BD03480C380068C0F3022070478A
:101B100000E400E018ED00E00000FA0580E100E0DC
:101B200080E200E0F8B502460B46002500240020C4
:101B30000021DCE0012606FA01F51E6806EA05042C
:101B4000AC4273D15E68022E02D05E68122E13D1B1
:101B5000CF0802F1200656F827004E07F70E0F2691
:101B6000BE40B0434F07FF0E1E69BE403043CF0852
:101B700002F1200646F8270010684F000326BE40F9
:101B8000B0431E7906F003064F00BE40304310609C
:101B90005E68012E08D05E68022E05D05E68112EA8
:101BA00002D05E68122E13D190684F000326BE400B
:101BB000B0434F00DE68BE4030439060506801265D
:101BC0008E40B0431E79C6F300168E4030435060FD
:101BD000D0684F000326BE40B0434F009E68BE4011
:101BE0003043D0605E6806F08056B6F1805F7DD1EC
:101BF00000BF00260096AD4E366846F48046AB4FD7
:101C00003E603E46366806F48046009600BF00BF40
:101C1000A74E8F0856F827008E07370F0F26BE40B5
:101C2000B043A44EB24202D1002624E05EE0A24EB0
:101C3000B24201D101261EE0A04EB24201D10226DD
:101C400019E09F4EB24201D1032614E09D4EB242EC
:101C500001D104260FE09C4EB24201D105260AE0D4
:101C60009A4EB24201D1062605E0994EB24201D108
:101C7000072600E008268F073F0FBE4030438C4EFA
:101C80008F0846F82700934E3068A0435E6806F43C
:101C90008036B6F5803F00D120438E4E3060361D31
:101CA0003068A0435E6806F40036B6F5003F00D108
:101CB0002043884E361D3060361D3068A0435E6874
:101CC00006F48016B6F5801F00D12043814E0836F9
:101CD0003060361D3068A0435E6806F40016B6F525
:101CE000001F00D120437B4E0C363060491C102968
:101CF000FFF420AFF8BDF0B50C460025002200230C
:101D0000002192E0012606FA01F504EA0502AA4242
:101D10007ED1674E8F0856F827308E07370F0F2673
:101D2000BE403340634EB04201D1002623E0624EF4
:101D3000B04201D101261EE0604EB04201D1022620
:101D400019E05F4EB04201D1032614E05D4EB0426F
:101D500001D104260FE05C4EB04201D105260AE015
:101D60005A4EB04201D1062605E0594EB04201D18B
:101D7000072600E008268F073F0FBE409E4222D173
:101D80008E07370F0F2606FA07F3494E8F0856F8CD
:101D900027609E43464F4FEA910C47F82C604D4E0A
:101DA000366896434B4F3E603E1D366896433F1D56
:101DB0003E603E1D366896433F1D3E603E1D3668C0
:101DC00096433F1D3E6006684FEA410C032707FA21
:101DD0000CF7BE430660CF0800F1200656F82760D6
:101DE0004F074FEAD76C0F2707FA0CF7BE434FEAAD
:101DF000D10C00F1200747F82C6086684FEA410CAF
:101E0000032707FA0CF7BE4386604768012600E007
:101E10000AE08E40B7434760C6684FEA410C03278B
:101E200007FA0CF7BE43C660491C1029FFF46AAFDD
:101E3000F0BD024613690B400BB1012000E0002009
:101E400070470AB1816101E00B0483617047426908
:101E50000A408A4202D10A04826100E0816170472F
:101E600008B502464FF48030009000980843009077
:101E70000098D061D1610098D061D0690090D0699C
:101E800000F4803008B1002008BD0120FCE7704755
:101E900010B504460F4814300068204028B10D48A2
:101EA000143004602046FFF7F2FF10BD44380240B2
:101EB00008380140000002400004024000080240CF
:101EC000000C0240001002400014024000180240C2
:101ED000001C0240003C014000207047F8B5044659
:101EE0000CB90120F8BD207800F00100002874D062
:101EF000F948006800F00C0004280DD0F64800688E
:101F000000F00C00082813D1F348001F006800F40B
:101F10008000B0F5800F0BD1EF4808380068C0F39F
:101F20004040002859D06068002856D10120D9E7E8
:101F300000BF6068B0F5803F08D1E7480838006806
:101F400040F48030E449083908601EE06068B0F56C
:101F5000A02F0DD1E0480838006840F48020DE4909
:101F6000083908600846006840F4803008600CE0DA
:101F7000D9480838006820F48030D749083908600B
:101F80000846006820F48020086000BF606890B1B7
:101F9000FFF746FB054606E0FFF742FB401B6428BF
:101FA00001D903209EE7CC4808380068C0F34040C0
:101FB0000028F1D011E0FFF733FB054606E0FFF7FC
:101FC0002FFB401B642801D903208BE7C248083847
:101FD0000068C0F340400028F1D1207800F00200F2
:101FE00002285FD1BC48006800F00C0058B1BA4824
:101FF000006800F00C0008281CD1B748001F0068DA
:1020000000F48000B0B9B44808380068C0F340005C
:1020100020B1E068012801D0012063E7AE4808380C
:10202000006820F0F800216940EAC100AA49083997
:10203000086037E0E06800B30120A8490860FFF7B6
:10204000EFFA054606E0FFF7EBFA401B022801D93C
:10205000032047E7A04808380068C0F34000002884
:10206000F1D09D480838006820F0F800216940EA66
:10207000C10099490839086014E0002097490860B8
:10208000FFF7CEFA054606E0FFF7CAFA401B022822
:1020900001D9032026E7904808380068C0F34000C3
:1020A0000028F1D1207800F0080008282CD16069C0
:1020B000A8B101208A490860FFF7B2FA054606E098
:1020C000FFF7AEFA401B022801D903200AE7824835
:1020D0006C300068C0F340000028F1D014E000200C
:1020E0007F490860FFF79CFA054606E0FFF798FA7B
:1020F000401B022801D90320F4E677486C300068C1
:10210000C0F340000028F1D1207800F0040004283A
:1021100070D1002670483830006800F0805090B9C7
:1021200000BF002000906C483830006840F08050BC
:102130006949383108600846006800F08050009016
:1021400000BF00BF01266748006800F48070B0B986
:102150006448006840F4807062490860FFF760FAE4
:10216000054606E0FFF75CFA401B022801D9032070
:10217000B8E65C48006800F480700028F2D000BF28
:10218000A068012808D154486830006840F0010078
:102190005149683108601DE0A06805280DD14E48FE
:1021A0006830006840F004004B4968310860084618
:1021B000006840F0010008600CE0474868300068A3
:1021C00020F001004449683108600846006820F0AA
:1021D0000400086000BFA068A8B1FFF721FA054617
:1021E00009E0FFF71DFA401B41F28831884202D90D
:1021F000032077E626E0384868300068C0F34000E6
:102200000028EED013E0FFF70BFA054608E0FFF7D1
:1022100007FA401B41F28831884201D9032061E668
:102220002D4868300068C0F340000028EFD1012E2F
:1022300007D129483830006820F0805026493831CD
:10224000086000BFA069B8B32348006800F00C0024
:1022500008285ED0A069022846D100201F490866E0
:10226000FFF7DEF9054606E0FFF7DAF9401B022822
:1022700001D9032036E6184808380068C0F34060EA
:102280000028F1D1D4E907010843616A40EA8111CD
:102290000122A06AC2EB500041EA00412C20005DFF
:1022A00041EA00600C49091F086001200B490866DB
:1022B000FFF7B6F9054607E02DE0FFF7B1F9401B3F
:1022C000022801D903200DE6034808380068C0F34E
:1022D00040600028F1D01EE008380240000047426C
:1022E000800E4742007000400020F9490866FFF761
:1022F00097F9054606E0FFF793F9401B022801D93C
:102300000320EFE5F3480068C0F340600028F2D1F5
:1023100001E00120E6E50020E4E52DE9F047002496
:1023200000250026A146EB480830006800F00C00AC
:1023300020B1042805D008283AD105E0DFF89893A9
:1023400039E0DFF8989336E0E248001D006800F0BD
:102350003F04E048001D006800F4800078B1DF48C9
:10236000DC49091D0968C1F38811A0FB0170014611
:1023700022460023384601F0B5FB05460EE0D6485C
:10238000D449091D0968C1F38811A0FB01700146F9
:1023900022460023384601F0A5FB0546CD48001D26
:1023A0000068C0F30140401C4600B5FBF6F902E0AE
:1023B000DFF8249300BF00BF4846BDE8F08770B542
:1023C00004460D460CB9012070BDC548006800F0F8
:1023D0000F00A84209D2C2490D700846006800F0FB
:1023E0000F00A84201D00120EEE7207800F00200A3
:1023F000022823D1207800F00400042807D1B54832
:102400000830006840F4E050B24908310860207894
:1024100000F00800082807D1AE480830006840F4F2
:102420006040AC4908310860AA480830006820F0D4
:10243000F000A1680843A74908310860207800F03F
:102440000100A0B36068012806D1A2480068C0F36B
:102450004040A8B90120B7E76068022802D0606850
:10246000032806D19B480068C0F3406040B90120B2
:10247000AAE798480068C0F3400008B90120A3E724
:1024800094480830006820F00300616808439149CF
:1024900008310860FFF7C4F8064609E0FFF7C0F806
:1024A000801B41F28831884202D903208CE708E082
:1024B00088480830006800F00C006168B0EB810FBC
:1024C000ECD18748006800F00F00A84209D9844980
:1024D0000D700846006800F00F00A84201D00120EE
:1024E00072E7207800F00400042809D17948083008
:1024F000006820F4E050E16808437649083108603C
:10250000207800F0080008280AD1724808300068D6
:1025100020F46040216940EAC1006E49083108603A
:10252000FFF7FBFE6B4908310968C1F303116D4ADF
:10253000515CC8406C4908600F20FFF712F800207A
:1025400042E770B586B006460C46154656BB00BF3E
:10255000002000905F483030006840F001005D4985
:10256000303108600846006800F00100009000BFAC
:1025700000BF8815019002200290032004900020E3
:102580000390059001A95948FFF7CCFA514808304B
:10259000006820F0EC6044EA050108434D49083129
:1025A000086029E000BF002000904A4830300068F1
:1025B00040F004004749303108600846006800F0E8
:1025C0000400009000BF00BF481501900220029057
:1025D0000320049000200390059001A94448FFF7D0
:1025E000A1FA3C480830006820F0784044EAC50170
:1025F000084338490831086006B070BD01203449ED
:10260000C864704700203249C86470473648006883
:10261000704700B5FFF7FAFF2E4908310968C1F38A
:102620008221344A515CC84000BD00B5FFF7EEFF7F
:10263000284908310968C1F342312E4A515CC8402B
:1026400000BD0F2101602349096801F48021B1F523
:10265000802F03D14FF4A02141600CE01D4909688F
:1026600001F48031B1F5803F03D14FF480314160F6
:1026700001E0002141601749096801F0010111B131
:102680000121C16001E00021C16012490968C1F364
:10269000C40101610F497031096801F00401042986
:1026A00002D1052181600AE00A497031096801F010
:1026B000010111B10121816001E000218160054922
:1026C0007431096801F00101B1B10121416115E0E6
:1026D00000004742003802400024F40000127A0053
:1026E000003C0240543C0008000000200000024072
:1026F00000080240643C0008002141612F4909683C
:1027000001F08071B1F1807F02D10221816101E08D
:10271000012181612949091D096801F48002C26112
:102720002649091D096801F03F0202622349091D7B
:102730000968C1F3881242622049091D096801F441
:10274000403101F58031CA0B82621C49091D0968BC
:10275000C1F30362C26270470F220260174A083257
:10276000126802F003024260144A0832126802F052
:10277000F0028260114A0832126802F4E052C2602C
:102780000E4A0832126802F46042D20802610C4A12
:10279000126802F00F020A607047704710B50748D0
:1027A0000C30006800F08000802805D1FFF7F5FFAD
:1027B000802002490E31087010BD00000038024030
:1027C000003C02400146087810381823B0FBF3F2B1
:1027D000FE48805CC865032A05D908686FF30900C4
:1027E000001D886503E008686FF309008865886D3F
:1027F0007047014600208A6A8B69CBB932B1012A41
:102800000DD0022A03D0032A10D10EE000BFCB6AFC
:1028100003F08073B3F1807F00D1012007E0CB6A21
:10282000B3F1C07F00D1012001E000E000BF34E03F
:102830008B69B3F5005F1AD132B1012A07D0022AA1
:1028400003D0032A11D10AE000BF01200EE0CB6AB9
:1028500003F08073B3F1807F00D1012006E0CB6AE2
:10286000B3F1C07F00D1012000E000BF15E032B11C
:10287000012A05D0022A04D0032A0CD103E000BFAC
:1028800000BF012008E0CB6A03F08073B3F1807FC2
:1028900000D1012000E000BF00BF70472DE9F041EA
:1028A00004460025FEF7BCFE074614B90120BDE82A
:1028B000F081606A00B100BF00BF002084F83400DE
:1028C00000BF022084F835002068006820F0010075
:1028D000216808600AE0FEF7A3FEC01B052805D9A1
:1028E00020206065032084F83500E0E72068006858
:1028F00000F001000028EED120680568B4480540CA
:10290000D4E901010843E16808432169084361698A
:102910000843A1690843E1690843216A0843054364
:10292000606A042803D1D4E90B01084305432068F9
:1029300005602068456925F00705606A0543606AFF
:1029400004280DD1A06A0543E06A48B12046FFF78C
:1029500050FF28B140206065012084F83500A6E7CB
:10296000206845612046FFF72DFF064694F85C106D
:102970003F208840B06000206065012084F8350069
:10298000002094E770B504460CB9012070BD94F89E
:102990003500022800D1F9E72068006820F0010026
:1029A000216808600020216808602168486021686B
:1029B00088602168C8602168086121202168486119
:1029C0002046FFF7FFFE05460020E06320646064B8
:1029D000A064E064206594F85C103F208840A86003
:1029E0000020606584F8350000BF84F8340000BF23
:1029F00000BFCBE730B50468246824F48024056860
:102A00002C60046863608468402C04D10468A26070
:102A10000468E16003E00468A1600468E26030BD1E
:102A20002DE9F04104460D4616461F464FF00008BA
:102A300000BF94F83400012802D10220BDE8F081E3
:102A4000012084F8340000BF94F83500012811D12A
:102A5000022084F83500002060653B463246294656
:102A60002046FFF7C7FF2068006840F0010021689A
:102A7000086006E000BF002084F8340000BF4FF07B
:102A800002084046DAE72DE9F04704460D461646AF
:102A90001F464FF00008D4F8589000BF94F8340057
:102AA000012802D10220BDE8F087012084F834001B
:102AB00000BF94F8350001282BD1022084F835009E
:102AC000002060653B46324629462046FFF792FFCC
:102AD00094F85C103F208840C9F80800206800681E
:102AE00040F01600216808602068406940F08000CE
:102AF00021684861206C28B12068006840F0080017
:102B0000216808602068006840F0010021680860C2
:102B100006E000BF002084F8340000BF4FF0020838
:102B20004046C0E770B50446A56DFEF779FD064640
:102B300094F83500022808D08020606500BF00208E
:102B400084F8340000BF012070BD2068006820F0C8
:102B50001600216808602068406920F08000216824
:102B60004861206C08B9A06C28B12068006820F08A
:102B70000800216808602068006820F001002168D2
:102B800008600FE0FEF74CFD801B05280AD92020C5
:102B9000606500BF002084F8340000BF032084F883
:102BA0003500D1E72068006800F001000028E9D175
:102BB00094F85C103F208840A86000BF002084F893
:102BC000340000BF012084F8350003E0A05800085D
:102BD0003F8010F00020B7E7014691F83500022849
:102BE00003D08020486501207047052081F835001A
:102BF0000868006820F001000A6810600020F3E710
:102C00002DE9F05F0446884617464FF0000AFEF7AC
:102C100007FD834694F83500022809D080206065BE
:102C200000BF002084F8340000BF0120BDE8F09F01
:102C30002068006800F4807020B14FF480706065F7
:102C40000120F3E7B8F1000F05D194F85C102020C3
:102C500000FA01F904E094F85C10102000FA01F980
:102C6000A56D2E6842E0781C90B12FB1FEF7D8FC1C
:102C7000A0EB0B00B8420BD92020606500BF0020FC
:102C800084F8340000BF012084F835000320CDE72C
:102C90002E6894F85C1008208840304040B1606D88
:102CA00040F00100606594F85C1008208840A8603E
:102CB00094F85C1001208840304040B1606D40F0D5
:102CC0000200606594F85C1001208840A86094F8C8
:102CD0005C1004208840304040B1606D40F004003A
:102CE000606594F85C1004208840A86006EA09003A
:102CF00020B9606D00F001000028B4D0606DA0B173
:102D0000606D00F0010080B12046FFF70BFF94F8E2
:102D10005C1030208840A86000BF002084F8340098
:102D200000BF012084F8350080E7B8F1000F0DD115
:102D300094F85C1030208840A86000BF002084F820
:102D4000340000BF012084F8350004E094F85C10E2
:102D500010208840A860504668E7F8B50446002077
:102D60000090C64800684FF41651B0FBF1F7A56D0E
:102D70002E6894F85C1008208840304098B1206894
:102D8000006800F0040070B12068006820F00400C2
:102D90002168086094F85C1008208840A860606D85
:102DA00040F00100606594F85C10012088403040DC
:102DB00068B12068406900F0800040B194F85C1070
:102DC00001208840A860606D40F00200606594F8C2
:102DD0005C1004208840304068B12068006800F032
:102DE000020040B194F85C1004208840A860606D37
:102DF00040F00400606594F85C101020884030407A
:102E000078B32068006800F0080050B394F85C10B4
:102E100010208840A8602068006800F4802080B1FD
:102E20002068006800F4002028B9206CC8B1204652
:102E3000216C884715E0A06C98B12046A16C8847AA
:102E40000FE02068006800F4807028B920680068EE
:102E500020F0080021680860206C10B12046216C29
:102E6000884794F85C10202088403040002865D0C6
:102E70002068006800F0100000285FD094F85C1013
:102E800020208840A86094F83500052828D12068C3
:102E9000006820F01600216808602068406920F072
:102EA000800021684861206C08B9A06C28B12068B6
:102EB000006820F008002168086094F85C103F204A
:102EC0008840A86000BF002084F8340000BF0120C3
:102ED00084F83500206D10B12046216D8847F8BD7B
:102EE0002068006800F4802080B12068006800F449
:102EF000002028B9606C10B12046616C88471DE045
:102F0000E06BD8B12046E16B884717E02068006885
:102F100000F4807068B92068006820F01000216813
:102F2000086000BF002084F8340000BF012084F84E
:102F30003500E06B10B12046E16B8847606D38B317
:102F4000606D00F00100F0B1052084F835002068C4
:102F5000006820F001002168086000BF0098401C54
:102F60000090B84200D905E02068006800F0010038
:102F70000028F3D100BF00BF002084F8340000BF58
:102F8000012084F83500E06C10B12046E16C8847E0
:102F900000BFA4E710B50346002400BF93F8340037
:102FA000012801D1022010BD012083F8340000BFA8
:102FB00093F83500012814D1062910D2DFE801F07A
:102FC000030507090B0DDA630AE01A6408E05A6486
:102FD00006E09A6404E0DA6402E01A6500E000BFEB
:102FE00000E0012400BF002083F8340000BF204629
:102FF000D9E70246002300BF92F83400012801D12E
:1030000002207047012082F8340000BF92F835009A
:10301000012824D107291FD2DFE801F004070A0D97
:10302000101316000020D06318E00020106415E093
:103030000020506412E0002090640FE00020D06473
:103040000CE00020106509E00020D063106450649B
:103050009064D064106501E0012300BF00E001230B
:1030600000BF002082F8340000BF1846C9E70146BF
:1030700091F8350070470146486D70470000002008
:1030800010B503460022086853F82020DA480240B1
:10309000D1E901042043CC6820430C6920434C69EA
:1030A00020438C692043CC6920430C6A20434C6A3E
:1030B00020438C6A2043CC6A2043CC6B20430C6BAA
:1030C000204302438868082801D142F04002086882
:1030D00043F82020002010BD10B5034653F822000D
:1030E00020F0010043F8220022B943F2DB0043F84C
:1030F000220003E043F2D20043F822006FF0704454
:10310000501C43F82040204641F82200002010BD0A
:1031100030B503460024501C53F8204004F04044CE
:10312000D1E9000540EA05108D6840EA05208D8947
:1031300040EA0545088A401E45EA0055087D801E84
:1031400045EA00608D6928430443501C43F8204041
:10315000002030BD70B504461D460023B5F5804FF4
:1031600013D154F82230A5480340D1E9000640EAC3
:1031700006108E6840EA06208E8940EA06408E6975
:103180003043034344F8223003E06FF0704044F8CA
:103190002200002070BD024652F8210040F4805009
:1031A00042F8210000207047024652F8210020F426
:1031B000805042F821000020704710B502460023DD
:1031C0000868102801D1136800E0136A8C48034096
:1031D000486840F008008C682043CC6820430C69A4
:1031E00020434C6940EA44208C6940EA4430034360
:1031F0000868102801D1136000E01362002010BDA0
:1032000030B503460024102A01D19C6800E09C6A76
:103210000024D1E9000540EA05200D8940EA054077
:103220000D7B40EA05600443102A01D19C6000E058
:103230009C62002030BD30B503460024102A01D125
:10324000DC6800E0DC6A0024D1E9000540EA0520E2
:103250000D8940EA05400D7B40EA05600443102AD1
:1032600001D1DC6000E0DC62002030BD02461029A4
:1032700004D1106820F00400106003E0106A20F010
:1032800004001062102908D11820106040205060FE
:103290004FF0FC309060D06007E0182010624020B2
:1032A00050624FF0FC309062D062002070470246BE
:1032B000102904D1106840F04000106003E0106A4B
:1032C00040F040001062002070470246102904D1EF
:1032D000106820F04000106003E0106A20F0400009
:1032E0001062002070472DE9F04104460E46174653
:1032F0001D464FF00008FEF793F980460BE0681C6E
:1033000048B12DB1FEF78CF9A0EB0800A84202D914
:103310000320BDE8F081102F03D16068C0F3801056
:1033200002E0606AC0F380100028E8D0102F02D1BC
:103330006069306001E0606B30600020E9E710B543
:103340000246002313682F480340086840F010002D
:103350004C6840EA44208C6840EA443003431360E0
:10336000002010BD10B50246002393680023D1E968
:10337000000440EA04200C8940EA04400C7B40EA47
:10338000046003439360002010BD10B50246002383
:10339000D3680023D1E9000440EA04200C8940EA04
:1033A00004400C7B40EA04600343D360002010BD5E
:1033B00010B50246002313690023D1E9000440EA56
:1033C00004200C8940EA04400C7B40EA046003437B
:1033D0001361002010BD0146086820F00400086059
:1033E00018200860002048604FF0FC308860C860FA
:1033F00008610020704700008000F0FF0000F0CF5F
:103400008101F0FFC501FEFF704770B504460E460E
:1034100015460CB9012070BD94F8490028B9002068
:1034200084F848002046FDF71BFC04F108012068E1
:10343000FFF726FE3146A2682068FFF769FE29469D
:10344000236BD4E90102FFF785FEA168206850F8DC
:10345000210040F00100A268216841F8220000200C
:10346000D9E7704710B504462046FFF7FAFF94E805
:103470000700FFF731FE002084F8490000BF84F800
:10348000480000BF10BD7047704730B504460D4678
:1034900000BF94F84800012801D1022030BD01206E
:1034A00084F8480000BF022084F8490004E028782E
:1034B0001070521C6D1C5B1E002BF8D1012084F88B
:1034C000490000BF002084F8480000BF00BFE5E7C6
:1034D00030B504460D4694F84900042801D1012076
:1034E00030BD00BF94F84800012801D10220F7E761
:1034F000012084F8480000BF022084F8490004E05D
:1035000010782870521C6D1C5B1E002BF8D1012016
:1035100084F8490000BF002084F8480000BF00BFC5
:10352000DEE730B504460D4600BF94F84800012898
:1035300001D1022030BD012084F8480000BF0220E4
:1035400084F8490004E028881080921CAD1C5B1EA2
:10355000002BF8D1012084F8490000BF002084F836
:10356000480000BF00BFE5E730B504460D4694F8BB
:103570004900042801D1012030BD00BF94F8480063
:10358000012801D10220F7E7012084F8480000BF9C
:10359000022084F8490004E010882880921CAD1CA9
:1035A0005B1E002BF8D1012084F8490000BF0020E9
:1035B00084F8480000BF00BFDEE710B5044600BF36
:1035C00094F84800012801D1022010BD012084F8A0
:1035D000480000BF022084F8490004E00868106039
:1035E000121D091D5B1E002BF8D1012084F8490033
:1035F00000BF002084F8480000BF00BFE5E710B519
:10360000044694F84900042801D1012010BD00BFF0
:1036100094F84800012801D10220F7E7012084F83E
:10362000480000BF022084F8490004E010680860E8
:10363000121D091D5B1E002BF8D1012084F84900E2
:1036400000BF002084F8480000BF00BFDEE72DE97E
:10365000F04104460D4616461F4600BF94F8480048
:10366000012802D10220BDE8F081012084F8480041
:1036700000BF022084F849004148E16CC86341481A
:10368000E16CC8643B4632462946E06CFFF7FBF923
:10369000012084F8490000BF002084F8480000BFE2
:1036A00000BFE0E72DE9F04104460D4616461F46EF
:1036B00094F84900042802D10120BDE8F08100BF40
:1036C00094F84800012801D10220F6E7012084F88F
:1036D000480000BF022084F849002948E16CC86313
:1036E0002848E16CC8643B462A463146E06CFFF747
:1036F000CAF9012084F8490000BF002084F848007E
:1037000000BF00BFD9E710B5044600BF94F84800D9
:10371000012801D1022010BD012084F8480000BF1B
:10372000A1682068FFF737FD012084F8490000BF39
:10373000002084F8480000BF00BFECE710B5044645
:1037400000BF94F84800012801D1022010BD0120DB
:1037500084F8480000BF022084F84900A16820686E
:10376000FFF722FD042084F8490000BF002084F800
:10377000480000BF00BFE9E7014691F849007047E3
:1037800087340008893400080A460021DBE0D30BA7
:10379000002B75D0102971D2DFE801F0080F161D3B
:1037A000242B323940464C52585E646A038823F415
:1037B000004303F50043038060E0038823F4804363
:1037C00003F58043038059E0038823F4005303F595
:1037D0000053038052E0038823F4805303F58053A1
:1037E00003804BE0038823F4006303F50063038048
:1037F00044E0038823F4806303F5806303803DE0A5
:10380000038823F4007303F50073038036E0038814
:1038100023F4807303F5807303802FE0038823F083
:1038200080038033038029E0038823F04003403382
:10383000038023E0038823F02003203303801DE06E
:10384000038823F010031033038017E0038823F06C
:1038500008030833038011E0038823F004031B1DD1
:1038600003800BE0038823F002039B1C038005E028
:10387000038823F001035B1C038000BF5DE0FFE7CA
:10388000102959D2DFE801F0080D12171C21262B50
:1038900030353A3F44494E53038823F400430380B4
:1038A0004AE0038823F48043038045E0038823F43F
:1038B0000053038040E0038823F4805303803BE0FF
:1038C000038823F40063038036E0038823F48063D5
:1038D000038031E0038823F4007303802CE0038825
:1038E00023F48073038027E0038823F080030380A0
:1038F00022E0038823F0400303801DE0038823F0C7
:103900002003038018E0038823F01003038013E0F2
:10391000038823F0080303800EE0038823F00403E8
:10392000038009E0038823F00203038004E0038896
:1039300023F00103038000BF00BF4FF6FF7303EACB
:1039400042024B1CD9B21029FFF621AF7047F0B5E7
:103950001C46002600250123C1F11007974202DA18
:10396000C1F11007FAB20E46002E0CDD05E0EF188B
:10397000BDB24FF6FF7707EA4303371EA6F1010CED
:103980000CF0FF06F3D1D0F814C04FF6FF77974044
:103990008F402F430CEA070CC0F814C0476904FAA3
:1039A00001FC47EA0C074761F0BD2DE9F04192B0F8
:1039B0000446884615461E46002700BF002000909A
:1039C0004448006840F0805042490860084600685A
:1039D00000F08050009000BF00BF00BF00200090AA
:1039E0003D48006840F480403B4908600846006854
:1039F00000F48040009000BF00BF0120069000044A
:103A0000079002200C9041050D91CDF838800F945D
:103A10001095119606A8FEF761FA07460FB100BF90
:103A2000FEE70F20019002200290002003904FF447
:103A3000A05004904FF480500590052101A8FEF796
:103A4000BEFC07460FB100BFFEE7FDF728FE41F2BE
:103A50000101884205D12148006840F480701F4967
:103A6000086012B0BDE8F08110B50420FEF731F80F
:103A7000A8201B49087010BD70B5034600224FF006
:103A8000E0267569164E367803FB06F44FF0E02603
:103A9000B16910E04FF0E026B06988420BD088424F
:103AA00002D20E1A324402E02E1A0E44324401466B
:103AB000A24200D300E0EDE700BF70BD30B5044680
:103AC000002504E04FF47A70FFF7D6FF6D1CA54285
:103AD000F8D330BD4038024000700040003C024046
:103AE0002500002053EA020C00F069802DE9F04B1C
:103AF0004FF00006002B1FBFB3FA83F503FA05F45D
:103B000024FA05F65E4012BF1643B2FA82F502FAB5
:103B100005F4C5F120051EBF22FA05FC44EA0C0499
:103B2000203556EA044C4FEA144418BF641C4FF089
:103B300000084FF00009904271EB030C39D30029C3
:103B400019BFB1FA81F701FA07F6B0FA80F700FA67
:103B500007F6C7F120071EBF20FA07FC46EA0C064D
:103B60002037B6FBF4FCA7EB0507103F07F01F0B4F
:103B7000CBF120060CFA0BFB2CFA06F644BFB34639
:103B80000026202FA4BF5E464FF0000B5BEA060C18
:103B900008BF4FF0010B19EB0B09ABFB027C48EBA4
:103BA0000608C01B06FB02CC0BFB03CC71EB0C011F
:103BB000C1E70B46024641464846BDE8F08B13B5C7
:103BC0004FF000004FF00001AFF30080BDE81C4053
:103BD0007047704770477047754600F02BF8AE4647
:103BE00005006946534620F00700854618B020B509
:103BF000FCF7E8FCBDE820404FF000064FF000075E
:103C00004FF000084FF0000B21F00701AC46ACE884
:103C1000C009ACE8C009ACE8C009ACE8C0098D46F1
:103C2000704710B50446AFF300802046BDE8104051
:103C3000FCF7F3BA004870477800002001491820CB
:103C4000ABBEFEE72600020070474FF04070E1EE89
:103C5000100A704700000000000000000102030489
:103C6000060708090000000001020304000000002C
:103C7000000000000000000000000404040404042C
:103C80000004000000140A0A000000000000000008
:103C9000000014143F140A3F0A0A000000041E1515
:103CA00005060C14150F0400000012150D0A142C43
:103CB0002A1200000000040A0A1E15150936000029
:103CC00000020201000000000000000000201008B7
:103CD000080808080810200000020408080808085E
:103CE0000804020000000004150E0E150400000078
:103CF00000000404041F040404000000000000008D
:103D0000000000000002020100000000001F00008F
:103D100000000000000000000000000000020000A1
:103D200000100808080404020202010000000E113D
:103D300011111111110E0000000004060404040406
:103D4000040E000000000E1111080402011F000003
:103D500000000E11100C1010110E00000000080CD5
:103D60000A0A091E0818000000001F01010F1010A8
:103D7000110E000000000E09010F1111110E0000BC
:103D800000001F09080404040404000000000E11D0
:103D9000110E1111110E000000000E1111111E1054
:103DA000120E0000000000000400000000040000EB
:103DB00000000000000400000004040000201008BF
:103DC0000402040810200000000000001F00001F73
:103DD0000000000000020408102010080402000087
:103DE00000000E11110804040004000000000E1170
:103DF0001915151D011E0000000004040C0A0A1EFE
:103E00001233000000000F12120E1212120F0000E7
:103E100000001E1101010101110E000000000F122F
:103E200012121212120F000000001F120A0E0A02D4
:103E3000121F000000001F120A0E0A0202070000F3
:103E400000001C1201013911120C00000000331295
:103E5000121E12121233000000001F040404040496
:103E6000041F000000003E080808080808090700B1
:103E7000000037120A060A0A123700000000070283
:103E800002020202223F000000001B1B1B1B151533
:103E90001515000000003B1216161A1A1217000022
:103EA00000000E1111111111110E000000000F126F
:103EB000120E02020207000000000E11111111176C
:103EC000190E180000000F12120E0A12123700000D
:103ED00000001E1101060810110F000000001F1540
:103EE00004040404040E0000000033121212121223
:103EF000120C000000003312120A0A0C0404000025
:103F000000001515150E0A0A0A0A000000001B0A17
:103F10000A04040A0A1B000000001B0A0A04040425
:103F2000040E000000001F0908040402121F000014
:103F3000001C04040404040404041C000002020223
:103F40000404080808100000000E08080808080803
:103F500008080E0000040A00000000000000000035
:103F600000000000000000000000003F000400000E
:103F7000000000000000000000000000000C121C07
:103F8000123C000000000302020E1212120E00008A
:103F900000000000001C1202021C000000001810AB
:103FA000101C1212123C000000000000000C121E37
:103FB000021C000000003804041E0404041E00005B
:103FC00000000000003C120C021E221C0000030234
:103FD000020E121212370000000004000006040452
:103FE000040E000000000800000C0808080808077C
:103FF00000000302023A0A0E123700000000070414
:1040000004040404041F000000000000000F151544
:104010001515000000000000000F121212370000FA
:1040200000000000000C1212120C00000000000042
:10403000000F1212120E020700000000001C1212E4
:10404000121C103800000000001B060202070000CE
:1040500000000000001E020C101E00000000000402
:10406000040E04040418000000000000001B1212DB
:10407000123C0000000000000037120A0C0400008F
:10408000000000000015150E0A0A000000000000E4
:10409000001B0A040A1B0000000000000037120A7F
:1040A0000C04040300000000001E0804041E0000AD
:1040B0000018080808040808080818000808080874
:1040C000080808080808080800060404040804048E
:1040D0000404060002251800000000000000000093
:1040E00000000000000000000000000000000000D0
:1040F0000000000808080808080800001818000058
:1041000000486C24120000000000000000000000C5
:104110000000002424247F1212127F1212120000C9
:104120000000081C2A2A0A0C1828282A2A1C080819
:1041300000000022251515152A5854545422000059
:104140000000000C1212120A76252911916E00004F
:10415000000606040300000000000000000000004C
:10416000004020101008080808080810102040001F
:1041700000020408081010101010100808040200B3
:104180000000000008086B1C1C6B08080000000001
:1041900000000000080808087F0808080800000060
:1041A00000000000000000000000000006060403FC
:1041B0000000000000000000FE0000000000000001
:1041C00000000000000000000000000006060000E3
:1041D0000000804040202010100808040402020063
:1041E0000000001824424242424242422418000089
:1041F000000000080E08080808080808083E00002B
:104200000000003C4242422020100804427E000090
:104210000000003C4242201820404042221C000086
:10422000000000203028242422227E202078000054
:104230000000007E0202021A26404042221C0000BA
:10424000000000382402021A2642424224180000CC
:104250000000007E2222101008080808080800004C
:104260000000003C4242422418244242423C0000EA
:10427000000000182442424264584040241C0000C0
:1042800000000000000018180000000018180000CE
:104290000000000000000008000000000008080402
:1042A0000000004020100804020408102040000014
:1042B0000000000000007F0000007F000000000000
:1042C0000000000204081020402010080402000032
:1042D0000000003C42424640201010001818000028
:1042E0000000001C225A555555552D42221C000035
:1042F0000000000808181414243C224242E7000081
:104300000000001F2222221E22424242221F0000E1
:104310000000007C4242010101010142221C000018
:104320000000001F2242424242424242221F00003D
:104330000000003F4212121E12120242423F0000D1
:104340000000003F4212121E121202020207000079
:104350000000003C2222010101712122221C0000E8
:10436000000000E7424242427E42424242E70000F1
:104370000000003E0808080808080808083E000079
:104380000000007C10101010101010101010110FF1
:104390000000007722120A0E0A1212222277000071
:1043A000000000070202020202020202427F000035
:1043B00000000077363636362A2A2A2A2A6B000071
:1043C000000000E346464A4A5252526262470000E9
:1043D0000000001C2241414141414141221C00009A
:1043E0000000003F424242423E0202020207000039
:1043F0000000001C2241414141414D53321C6000EC
:104400000000003F4242423E1212222242C70000F8
:104410000000007C4242020418204042423E00005C
:104420000000007F4908080808080808081C000068
:10443000000000E74242424242424242423C000007
:10444000000000E742422224241414180808000047
:104450000000006B49494949555536222222000087
:10446000000000E7422424181818242442E7000022
:10447000000000772222141408080808081C000015
:104480000000007E2120101008040442423F00007A
:1044900000780808080808080808080808087800CC
:1044A00000000202040408080810102020204040E8
:1044B000001E1010101010101010101010101E0000
:1044C0000038440000000000000000000000000070
:1044D000000000000000000000000000000000FFDD
:1044E00000060800000000000000000000000000BE
:1044F000000000000000003C4278444242FC000002
:10450000000000030202021A26424242261A00005C
:10451000000000000000003844020202443800009D
:1045200000000060404040784442424264D80000AD
:10453000000000000000003C427E0202423C0000FD
:10454000000000F08808087E08080808083E0000FF
:10455000000000000000007C22221C023C42423C81
:10456000000000030202023A4642424242E70000D3
:104570000000000C0C00000E08080808083E0000AF
:104580000000003030000038202020202020221E93
:104590000000000302020272120A161222770000C3
:1045A0000000000E0808080808080808083E000077
:1045B000000000000000007F9292929292B70000EB
:1045C000000000000000003B4642424242E700007B
:1045D000000000000000003C42424242423C000019
:1045E000000000000000001B26424242221E02077B
:1045F000000000000000007844424242447840E05D
:1046000000000000000000774C040404041F0000B8
:10461000000000000000007C42023C40423E0000DE
:10462000000000000008083E0808080808300000E4
:1046300000000000000000634242424262DC0000D1
:1046400000000000000000E74224241408080000D5
:1046500000000000000000EB4949555522220000EF
:10466000000000000000007624181818246E0000D6
:1046700000000000000000E7422424141808080786
:10468000000000000000007E22100808447E0000A8
:1046900000C0202020202010202020202020C0002A
:1046A000101010101010101010101010101010100A
:1046B0000006080808080810080808080808060086
:1046C0000C32C200000000000000000000000000EA
:1046D00000000000000000000000000000000000DA
:1046E00000000000000000000000000000000000CA
:1046F00000000000000000000000000000000000BA
:104700000000000000000000E000E000E000E00029
:10471000E000400040004000400040004000000039
:1047200000000000E000E000E000000000000000E9
:104730000000000060066006300398018800440015
:104740000000000000000000000000000000000069
:104750000000000000000000000000000000000059
:10476000000000000000000000000802080208022B
:104770000802FE07FE070802080204010401FE0702
:10478000FE07040104010401040100000000000010
:1047900000000000000040004000F00158034C03FE
:1047A0004C034C0058007000E000C001C001400301
:1047B0004C034C034C034801F00040004000000053
:1047C000000000000000000000000E030A011101BB
:1047D00091009100D1005100FA03AE026004500430
:1047E00050045804480488028403000000000000BC
:1047F00000000000000000000000380064006400B9
:1048000064006400A4031C010C011A019200B300AF
:10481000E3006300C300A6041C03000000000000C6
:10482000000000000C001C00100010000800060032
:104830000000000000000000000000000000000078
:104840000000000000000000000000000000000068
:104850000000000000040002000180018000C00090
:10486000C0006000600060006000600060006000E8
:10487000C000C000800080010001000200040000B0
:1048800000000000020004000800180010003000C2
:104890003000600060006000600060006000600048
:1048A0003000300010001800080004000200000072
:1048B0000000000000000000000000004000400078
:1048C00040004E0E5C07F001F0015C074E0E400008
:1048D0004000400000000000000000000000000058
:1048E0000000000000000000000000000000400088
:1048F0004000400040004000FE0F400040004000EB
:104900004000400000000000000000000000000027
:104910000000000000000000000000000000000097
:104920000000000000000000000000000000000087
:10493000000000000C001C00100010000800060021
:104940000000000000000000000000000000000067
:104950000000000000000000FE0700000000000052
:104960000000000000000000000000000000000047
:104970000000000000000000000000000000000037
:104980000000000000000000000000000000000027
:10499000000000001C001C001C00000000000000C3
:1049A00000000000000400060002000300010001F6
:1049B00080008000400040006000200020001000C7
:1049C0001000080008000C000400060002000000AF
:1049D00000000000000000000000F00098010C033F
:1049E0000C03060606060606060606060606060664
:1049F00006060C030C039801F00000000000000004
:104A000000000000000000000000400060007C008A
:104A10006000600060006000600060006000600096
:104A20006000600060006000FC0300000000000007
:104A300000000000000000000000F80084010203F4
:104A400006030603000380018001C000200010005F
:104A5000080204020202FE03FE0300000000000040
:104A6000000000000000000000007800C400860183
:104A7000860186018001C0007000800100010003F2
:104A80000603060306038401F8000000000000008E
:104A9000000000000000000000018001C001C00112
:104AA000A001900190018801840184018201FE0728
:104AB0008001800180018001E0070000000000000B
:104AC00000000000000000000000FC03FC030400E4
:104AD000040004000400F4008C010403000300033C
:104AE0000603060382018401F800000000000000B4
:104AF00000000000000000000000E00118030C03AB
:104B00000C0004000600E60116030E060606060663
:104B1000060604060C021803F00000000000000066
:104B200000000000000000000000F807FC070C0275
:104B300004010401000180008000400040004000AA
:104B40006000600060006000600000000000000085
:104B500000000000000000000000F8010C03060641
:104B6000060606060E023C03F000CC01040306060E
:104B70000606060606060C03F00100000000000011
:104B800000000000000000000000F0000C010C0319
:104B9000060206060606060606078C0678060006C6
:104BA000000300030C018C017800000000000000ED
:104BB00000000000000000000000000000000000F5
:104BC0000000E000E000E000000000000000000045
:104BD00000000000E000E000E00000000000000035
:104BE00000000000000000000000000000000000C5
:104BF00000000000600060000000000000000000F5
:104C00000000000000006000600040002000000084
:104C1000000000000000000000040002000180000D
:104C200040002000100008000400080010002000D0
:104C300040008000000100020004000000000000AD
:104C40000000000000000000000000000000000064
:104C500000000000FE070000000000000000FE074A
:104C60000000000000000000000000000000000044
:104C700000000000000000000400080010002000F8
:104C800040008000000100020004000200018000DA
:104C90004000200010000800040000000000000098
:104CA0000000000000000000F0010C0302060206F4
:104CB0000606060600038001600020002000200098
:104CC0000000000070007000700000000000000094
:104CD00000000000000000000000E00138060804A9
:104CE000CC0A640B260926091609160996099605A9
:104CF00066030C080C041802E0010000000000002C
:104D00000000000000000000000060006000700073
:104D1000D000D000C800880188018801F801040390
:104D200004030403040606060F0F00000000000041
:104D300000000000000000000000FF0086010603E4
:104D40000603060306038601FE00060306020606A6
:104D50000606060606060603FF0100000000000026
:104D600000000000000000000000E00718060C042E
:104D70000C040400060006000600060006000600FB
:104D800006040C040C021801F000000000000000F2
:104D9000000000000000000000007F008601060304
:104DA00006030606060606060606060606060606A6
:104DB000060606030603C6017F000000000000008F
:104DC00000000000000000000000FF0306020604CF
:104DD0000600060086008600FE00860086000600AB
:104DE0000600060406040602FF030000000000009F
:104DF00000000000000000000000FF03060306049E
:104E00000604060086008600FE0086008600060076
:104E100006000600060006000F000000000000006B
:104E200000000000000000000000F00218030C0267
:104E30000C0204000600060006000600C60F06036A
:104E400006030C030C031803F00000000000000030
:104E5000000000000000000000000F0F060606061C
:104E60000606060606060606FE07060606060606E9
:104E700006060606060606060F0F000000000000E4
:104E800000000000000000000000FC036000600063
:104E90006000600060006000600060006000600012
:104EA0006000600060006000FC0300000000000083
:104EB00000000000000000000000F00F80018001F1
:104EC00080018001800180018001800180018001DA
:104ED000800180018001800180018601C6007C0084
:104EE00000000000000000000000CF07060186005F
:104EF00046004600260036003E006E00E600C60072
:104F0000C6018601060306078F0F0000000000009F
:104F1000000000000000000000000F000600060076
:104F20000600060006000600060006000600060051
:104F30000600060406040602FF030000000000004D
:104F4000000000000000000000000F0F0E070E0719
:104F50000E079A069A069A069A065A06720672066C
:104F60007206720622062206270F000000000000CB
:104F700000000000000000000000070E0E040E04F8
:104F80001A041A04320462046204C204C2048205D0
:104F900002070207020602060704000000000000E4
:104FA00000000000000000000000F00098010C0369
:104FB0000C0206060606060606060606060606068F
:104FC00006060C020C039801F0000000000000002F
:104FD00000000000000000000000FF0106030606BC
:104FE00006060606060606060603FE01060006007D
:104FF00006000600060006000F000000000000008A
:1050000000000000000000000000F00098010C0308
:105010000C0206060606060606060606060606062E
:1050200076064C028C038801F00180070003000023
:1050300000000000000000000000FF01060306065B
:105040000606060606060603FE006600C600C60043
:1050500086018601060306030F0E00000000000013
:1050600000000000000000000000F8040C07060427
:10507000060406000E003C00F000C003000300061A
:105080000206020606060E03F20100000000000000
:1050900000000000000000000000FE07620461083C
:1050A00061086000600060006000600060006000F7
:1050B0006000600060006000F00000000000000080
:1050C000000000000000000000000F0E06040604AF
:1050D0000604060406040604060406040604060480
:1050E0000604060406040C02F8010000000000009B
:1050F000000000000000000000001F0F0E060C0260
:105100000C020C020C011801180118011801B00062
:10511000B000B000F000600060000000000000007F
:1051200000000000000000000000EF0E66046604AE
:1051300066026602E602EC02EC02DC01DC01DC0144
:10514000DC019C018800880088000000000000004D
:10515000000000000000000000009E070C03180182
:1051600018019800B000700060006000E000D000FE
:10517000D001980188010C039E0700000000000088
:10518000000000000000000000001F0F0E060C02CF
:105190000C0118011801B000B00070006000600040
:1051A0006000600060006000F80100000000000086
:1051B00000000000000000000000FC070403820360
:1051C0008001C001C000C0006000600030003000FD
:1051D000180018041C040C02FE030000000000006C
:1051E00000000000E0072000200020002000200038
:1051F00020002000200020002000200020002000AF
:10520000200020002000200020002000E0070000F7
:105210000000000000000000040008000800080072
:1052200010001000200020002000400040008000FE
:105230008000800000010001000200020002000462
:1052400000000000FC0080008000800080008000E2
:10525000800080008000800080008000800080004E
:10526000800080008000800080008000FC00000042
:1052700000000000E000B001080200000000000093
:10528000000000000000000000000000000000001E
:10529000000000000000000000000000000000000E
:1052A00000000000000000000000000000000000FE
:1052B00000000000000000000000000000000000EE
:1052C0000000000000000000000000000000FF0FD0
:1052D0000000000018006000000000000000000056
:1052E00000000000000000000000000000000000BE
:1052F00000000000000000000000000000000000AE
:10530000000000000000000000000000000000009D
:1053100000000000F0010C030C03E00338030C0351
:105320000603060306038E0B7C0F0000000000003E
:10533000000000000000000008000E000C000C003F
:105340000C000C00CC013C031C060C060C060C06E1
:105350000C060C060C021C03F40100000000000007
:10536000000000000000000000000000000000003D
:1053700000000000F0008C018C0186010600060090
:10538000060006020C020C01F00000000000000004
:105390000000000000000000000280030003000382
:1053A0000003000378038C030C03060306030603C3
:1053B0000603060304038C077801000000000000C8
:1053C00000000000000000000000000000000000DD
:1053D00000000000E001180308060C06FC070C00A2
:1053E0000C000C0018043802E0010000000000006E
:1053F00000000000000000000000C003600630064E
:1054000030003000FE03300030003000300030004B
:105410003000300030003000FC01000000000000CF
:10542000000000000000000000000000000000007C
:1054300000000000F00E98090C030C030C03980107
:10544000F8000C007C00F803060606060E07F801BB
:10545000000000000000000008000E000C000C001E
:105460000C000C00EC011C030C030C030C030C03DC
:105470000C030C030C030C039E070000000000004B
:10548000000000000000000000006000600000005C
:10549000000000007C0060006000600060006000B0
:1054A0006000600060006000FC030000000000007D
:1054B00000000000000000000000800180010000EA
:1054C00000000000F0018001800180018001800166
:1054D000800180018001800180018001CC007C007E
:1054E000000000000000000008000E000C000C008E
:1054F0000C000C00CC038C00CC004C006C007C0039
:10550000DC00CC008C018C019E0700000000000034
:10551000000000000000000040007C00600060000F
:10552000600060006000600060006000600060007B
:105530006000600060006000FC03000000000000EC
:10554000000000000000000000000000000000005B
:10555000000000007707EE06660666066606660629
:105560006606660666066606EF0E0000000000008E
:10557000000000000000000000000000000000002B
:1055800000000000CE013C030C030C030C030C03D1
:105590000C030C030C030C039E070000000000002A
:1055A00000000000000000000000000000000000FB
:1055B00000000000F00098010C030606060606062F
:1055C000060606060C030C03F000000000000000B5
:1055D00000000000000000000000000000000000CB
:1055E00000000000EE011C030C060C060C060C0665
:1055F0000C060C060C031C03EC010C000C003E0016
:10560000000000000000000000000000000000009A
:105610000000000078028C030C0306030603060357
:105620000603060304038C03780300030003C0078A
:10563000000000000000000000000000000000006A
:10564000000000009F0758063800180018001800D6
:105650001800180018001800FF00000000000000EB
:10566000000000000000000000000000000000003A
:1056700000000000F00718060C040C003800F001D0
:105680008003040604060C03FC0100000000000077
:1056900000000000000000000000000020002000CA
:1056A00030003000FE0130003000300030003000AB
:1056B0003000300030023002E00100000000000045
:1056C00000000000000000000000000000000000DA
:1056D000000008028E030C030C030C030C030C03E4
:1056E0000C030C030C039C07780100000000000071
:1056F00000000000000000000000000000000000AA
:10570000000000003E0F1C06180218023001300194
:105710003001E000E000E000400000000000000078
:105720000000000000000000000000000000000079
:1057300000000000EF0DC604C604E604EC04AC0350
:105740009C039C039C03080108010000000000006A
:105750000000000000000000000000000000000049
:1057600000000000BE0718019801B0007000600042
:10577000E000D00098018803DE0700000000000070
:105780000000000000000000000000000000000019
:1057900000000000BE071C0118011801B000B00095
:1057A000B0006000600040002000200014001C00D9
:1057B00000000000000000000000000000000000E9
:1057C00000000000FC038401C401C000E000600090
:1057D0007000300438041806FC03000000000000CC
:1057E0000000000000038001800080008000800035
:1057F000800080008000C0002000C0008000800089
:105800008000800080008000800080010003000094
:105810004000400040004000400040004000400088
:105820004000400040004000400040004000400078
:105830004000400040004000400040004000400068
:10584000000000000C0018001000100010001000F4
:105850001000100010003000400030001000100058
:105860001000100010001000100018000C000000C4
:1058700000001C0024004208820400070000000011
:105880000000000000000000000000000000000018
:105890000000000000000000000000000000000008
:1058A0000006101600061016C85800080000002058
:1058B00028000000C4010008F0580008280000205B
:1058C000B0060000E00100080024F4000000000021
:1058D00000000000FFFF00000000000000000000CA
:1058E00000000000000000001000000001000000A7
:040000050800018965
:00000001FF
