:020000040800F2
:1000000078040020A1010008DB100008FD0C0008A6
:10001000D9100008AD020008C51200080000000059
:10002000000000000000000000000000FD100008BB
:10003000AF02000800000000DD1000081D120008DB
:10004000BB010008BB010008BB010008BB010008A0
:10005000BB010008BB010008BB010008BB01000890
:10006000BB010008BB010008BB010008BB01000880
:10007000BB010008BB010008BB010008BB01000870
:10008000BB010008BB010008BB010008BB01000860
:10009000BB010008BB010008BB010008BB01000850
:1000A000BB010008BB010008BB010008BB01000840
:1000B000BB010008BB010008BB010008BB01000830
:1000C000BB010008BB010008BB010008BB01000820
:1000D000BB010008BB010008BB010008BB01000810
:1000E000BB010008BB010008BB010008BB01000800
:1000F000BB010008BB010008BB010008BB010008F0
:10010000BB010008BB010008BB010008BB010008DF
:10011000BB010008BB010008BB010008BB010008CF
:10012000BB010008BB010008BB010008BB010008BF
:10013000BB010008BB010008BB010008BB010008AF
:10014000BB010008BB010008BB010008BB0100089F
:10015000BB010008BB010008BB010008BB0100088F
:10016000BB010008BB010008BB010008BB0100087F
:10017000BB010008BB010008BB0100080000000033
:10018000BB010008BB010008DFF810D000F07CF8CC
:100190000048004769130008AFF30080780400208E
:1001A0000648804706480047FEE7FEE7FEE7FEE711
:1001B000FEE7FEE7FEE7FEE7FEE7FEE7B512000812
:1001C000890100082DE9F05F0546002092469B4614
:1001D00088460646814640241BE02846414647465D
:1001E000224600F041F853465A46C01A914110D3B6
:1001F00011461846224600F028F82D1A67EB010830
:100200004F4622460120002100F01FF817EB00099D
:100210004E41201EA4F10104DFDC484631462A4647
:100220004346BDE8F09FD2B201E000F8012B491E21
:10023000FBD270470022F6E710B513460A46044683
:100240001946FFF7F0FF204610BD202A04DB203AB4
:1002500000FA02F1002070479140C2F1200320FA19
:1002600003F3194390407047202A04DB203A21FA17
:1002700002F00021704721FA02F3D040C2F12002BF
:100280009140084319467047064C074D06E0E06868
:1002900040F0010394E8070098471034AC42F6D3CD
:1002A000FFF776FF9C300008BC300008FEE770477F
:1002B00030B5B3F5804F05D06FF0704140F8221093
:1002C000002030BD8C690B688D6823434C68898998
:1002D000240144EA0524234343EA014150F8223033
:1002E000014C23401943E9E70000F0CF10B50A683C
:1002F00050F8223023F0010340F822308C68082C9B
:1003000023D000234A682243CC681C430B69224354
:100310001A434B690E4C1A43CB691A430B6A1A43B2
:100320004B6A1A438B6A1A43CB6A1A430B6B1A4304
:100330008B691343CA6B09681A4350F82130A343F1
:10034000134340F82130002010BD4023DAE70000BD
:100350007FFF0F0030B5D1E9003443EA04138C6805
:100360008D89240244EA054423430C8A094D00EB9D
:10037000820005EB045423430C7D6D0105EB0464FE
:10038000896923430B43416801F040410B434360BB
:10039000002030BD0000F0FF2DE9F84FDFF8BCA1D0
:1003A0000022012503264FF00F090AF1040BAAF1E0
:1003B000040E00BF0B6805FA02F42340A34270D17B
:1003C0000F7907F00307012F01D0022F16D187689C
:1003D0004FEA420806FA08FC27EA0C07D1F80CC0DD
:1003E0000CFA08FC4CEA070CC0F808C04768A743A1
:1003F0000C79C4F3001494403C4344600C79E4430A
:10040000A4070AD0C4684FEA420C06FA0CF7BC43B2
:100410008F6807FA0CF72743C7600C7904F00304D0
:10042000022C12D1D40800EB840CDCF820405707D2
:10043000FF0E09FA07F824EA0804D1F8108008FA38
:1004400007F848EA0408CCF8208004684FEA420C18
:1004500006FA0CF7BC430F7907F0030707FA0CF70D
:10046000274307604C6814F4403F70D03C4C276829
:1004700047F480472760246822F0030704F480448F
:100480000094384C07EB040CDCF8084897074FEA57
:10049000177809FA08F7BC43334FB84202D1002756
:1004A00024E054E0314FB84201D101271EE0304F23
:1004B000B84201D1022719E02E4FB84201D10327DB
:1004C00014E02D4FB84201D104270FE02B4FB84262
:1004D00001D105270AE02A4FB84201D1062705E0DD
:1004E000284FB84201D1072700E0082707FA08F78C
:1004F0002743CCF80878DAF800405746D1F804C012
:100500009C435FEACC2C00D51C433C60DBF80040E8
:100510005F46D1F804C09C435FEA8C2C00D51C4395
:100520003C60DEF800407746D1F804C09C435FEAA7
:100530008C3C00D51C433C60084F083F3C68D1F818
:1005400004C09C435FEACC3C00D51C433C60521C79
:10055000102AFFF42FAFBDE8F88F0000083C0140DF
:1005600044380240003001400000024000040240D4
:1005700000080240000C024000100240001402403B
:1005800000180240001C02400148806870470000CB
:10059000140000200248816802781144816070478D
:1005A000140000200B4810B5016841F4007101608F
:1005B000016841F480610160016841F4807101606B
:1005C000032000F061F80F2000F006F800F024F896
:1005D000002010BD003C024070B50D4D04464FF4A4
:1005E0007A712878B1FBF0F00A490968B1FBF0F0A4
:1005F00000F070FB48B9102C07D200222146501E93
:1006000000F022F800206C6070BD012070BD000079
:1006100014000020200000200A4808B5016841F4B9
:1006200080410160006800F4804000900548001F90
:10063000016841F080510160006800F08050009036
:1006400008BD000044380240F0B40E4B1B680C4655
:10065000C3F30223C3F10705042D00D90425191D96
:10066000072901D2002300E0DB1E012606FA05F16E
:10067000491E214099409E40761E16403143F0BCF1
:1006800000F021BE0CED00E0064900F0070208680A
:100690004FF6FF03184040EA0220034A1043086067
:1006A000704700000CED00E00000FA052DE9F0476E
:1006B0000E46050065D0DFF81481D8F80000F7B2C7
:1006C00000F00700B04207D288F80070D8F80000A8
:1006D00000F00700B04254D128683D4C810712D584
:1006E000400703D5206840F4E050206028780007D8
:1006F00003D5206840F4604020602068A96820F09D
:10070000F000084320602878C0072DD03049686881
:100710000839012812D0022813D0032811D0096803
:10072000890700292DDA216821F0030101432160A6
:10073000FFF72AFF814641F2883A0EE009688903F3
:10074000EFE709688901ECE7FFF71EFFA0EB09015D
:10075000514502D90320BDE8F0872068696800F0A0
:100760000C00B0EB810FEFD1D8F80010404601F03B
:100770000701B14207D90770006800F00700B042D6
:1007800001D00120E7E72878400705D52068E9680F
:1007900020F4E050084320602878000706D5206840
:1007A000296920F4604040EAC100206000F018F898
:1007B0002168084AC1F30311515CC840064908602A
:1007C00006480068FFF708FF0020C4E7003C02402D
:1007D000083802408C30000820000020180000205B
:1007E000154810B5006810F00C02144813D04110E1
:1007F000042A0FD0082A0ED10F4C241F2268236828
:1008000002F03F025B0207D52068C0F38810A0FB0E
:10081000010106E0084610BD2168C1F38811A1FB63
:1008200000010023FFF7CEFC2168C1F30141491C00
:100830004900B0FBF1F010BD083802400024F4007C
:100840002DE9F84F04006ED02078DFF84C93C007F4
:10085000A9F104054AD009F104000168C1F381013E
:10086000012908D00068C0F3810002280AD1D9F814
:100870000000400206D52868800337D5606800284C
:10088000E1D033E06068B0F5803F10D0B0F5A02F24
:10089000286810D020F480302860286820F4802058
:1008A00028606068A8B1FFF76FFE06460DE0286873
:1008B00040F48030F4E740F480202860F7E700BF80
:1008C000FFF762FE801B642873D828688003F7D581
:1008D0000CE0FFF759FE064605E000BFFFF754FEA7
:1008E000801B6428F0D828688003F7D42078DFF8CC
:1008F000AC8280074FF0000A3ED5A748001D016872
:1009000011F00C0F08D00068C0F3810002280BD151
:10091000D9F80000400207D42868800716D5E0689F
:10092000012800D112E033E1E068B8B10120C8F835
:100930000000FFF729FE064605E000BFFFF724FE92
:10094000801B0228C0D828688007F7D5286821694D
:1009500020F0F80040EAC10028600DE0C8F800A0CF
:10096000FFF712FE064604E0FFF70EFE801B02288A
:100970001FD828688007F7D42078000722D5864F33
:1009800087486169703771B101210160FFF7FCFD93
:10099000064604E0FFF7F8FD801B022809D83868F6
:1009A0008007F7D50EE0C0F800A0FFF7EDFD064682
:1009B00005E082E0FFF7E8FD801B02287DD838685B
:1009C0008007F7D42078400768D5DFF8CCB100273E
:1009D0000BF13C0BDBF80000C0000BD4DBF800107F
:1009E00041F08051CBF80010DBF80000012700F047
:1009F000805000906B4E3068C00510D4306840F4D1
:100A000080703060FFF7C0FD009005E0FFF7BCFD8F
:100A10000099401A022850D83068C005F6D55E4EBD
:100A2000A0686C3601280FD00528306810D020F05F
:100A300001003060306820F004003060A068B8B178
:100A4000FFF7A2FD00900FE0306840F00100F4E7EE
:100A500040F004003060F7E7FFF796FD0099411A77
:100A600041F28830814266D830688007F4D50EE0C4
:100A7000FFF78AFD009007E0FFF786FD0099411A15
:100A800041F28830814256D830688007F4D42FB1C3
:100A9000DBF8001021F08051CBF80010A069C8B33A
:100AA0003D49091D0968C1F3810102294AD0022884
:100AB000504607D0C8F8600000E03CE0FFF764FD56
:100AC00004463BE04746C8F86000FFF75DFD064678
:100AD00005E000BFFFF758FD801B02282BD82868CF
:100AE0008001F7D4D4E907010843A16A2E4A4908D6
:100AF00002EB0141626A41EA8211084394F82C102A
:100B000040EA0161C9F8001001203866FFF73CFD9A
:100B1000044606E03EE000BFFFF736FD001B02285A
:100B200009D828688001F7D534E000BFFFF72CFD15
:100B3000001B022802D90320BDE8F88F2868800135
:100B4000F4D427E00128F7D0D9F80000E26900F4D6
:100B5000800191421CD1226A00F03F01914217D1DD
:100B600047F6C071626A0140B1EB821F10D1A26AE0
:100B70004FF0FF3300F4403103EB5202B1EB024F70
:100B800006D194F82C1000F07060B0EB016F01D02A
:100B90000120D1E70020CFE704380240000047429F
:100BA000800E4742007000400000FFFF70B5154600
:100BB0000E46040003D094F8490010B107E001206C
:100BC00070BD002084F84800204600F01DF804F1B4
:100BD00008012068FFF78AFB3146A2682068FFF70A
:100BE000B9FBD4E901022946236BFFF761FB2168B9
:100BF000A06851F8202042F0010241F82020012095
:100C000084F84900002070BD284810B5016886B0FE
:100C100041F001010160006800F0010005902348E7
:100C20000838016841F008010160016801F008011D
:100C30000591016841F010010160016801F01001A7
:100C40000591016841F020010160016801F0200177
:100C50000591016841F0400101600068694600F0BB
:100C6000400005904CF2337000900220019001206A
:100C70000290032003900C2004900D48FFF78CFB9A
:100C80004FF68070009069460A48FFF785FB042004
:100C9000094C009069462046FFF77EFBA0140090A7
:100CA00069462046FFF778FB06B010BD3838024091
:100CB000000C024000100240001802404FF0E021FA
:100CC0000428086903D020F004000861704740F050
:100CD0000400FAE710B5401EB0F1807F01D3012077
:100CE00010BD4FF0E02460610F21601700F0EBFAB7
:100CF0000020A06107202061002010BDFEE7000059
:100D00000549D3200880881C4FF6FF71008801EA4E
:100D10000021084370470000FE1F006C70B50546B7
:100D2000084800242146068940894643204600F0B1
:100D300095F900F0BFF9044801E00580641CB44255
:100D4000FBD370BD000000200020006C10B51446DD
:100D500000F08AF80348044980890880881C0480D0
:100D600010BD000000000020FE1F006C2DE9FF4FA9
:100D70001D46044682460C2B0CD0102D0CD0182D8D
:100D80004AD13020203A8146D0B20026DFF88CB01C
:100D900002903FE00C20F5E71020F3E70C2D04D083
:100DA000102D09D0182D0AD010E002981C4900EB34
:100DB000400001EB800008E01A49029803E0029825
:100DC000194900EB400001EB0010875D4FF000086F
:100DD000F80702D0BBF8022001E0BBF8042020464F
:100DE0000199FFF7B3FF641CA4B27F08A4EB0A00CB
:100DF000B0EB550F05D101985446401C80B20190CC
:100E000006E008F1010000F0FF08B8F1080FDFD399
:100E1000761CF6B24E45C1D3BDE8FF8F000000201E
:100E200058140008CC180008BC1E00082DE9F04139
:100E30001C461646884605460A4F0BE03346414697
:100E40002846FFF793FF05EB560085B238898542A7
:100E500005D2641C2278A2F120005E28EED9BDE8FC
:100E6000F08100000000002000B500F0F7F800F06D
:100E700021F9024802494088088000BD0000002096
:100E80000020006C00B518488FB04FF02041016081
:100E9000164941600621816000211022C160C0E92D
:100EA000041281611202C161C0E909129200C0E915
:100EB0000B1292014163C0E90E120F20CDE9070128
:100EC0003C2009900920CDE900010D9108200391F3
:100ED000069102906A4607A90348FFF767FE322091
:100EE00000F01AFA0FB000BD24000020040100A099
:100EF0002DE9F047454886B00068444940F020009D
:100F000008600868012500F0200005900815CDE96B
:100F100000054FF00308CDE9025869463C48FFF749
:100F20003BFAFFF7AFFFFFF7EBFE3A4A3A4C49F2C4
:100F30004137A61CD08041F663134FF0E00A4FF012
:100F40002909B84206D000F0CBF8A0F5AE41D08018
:100F500061392ED081B2B9421AD100BF4FF0204082
:100F6000D0F81C2122F00F02C0F81C21D0F81C215F
:100F700022F47062C0F81C21D0F81C2142F0030258
:100F8000C0F81C21D0F81C2142F40072C0F81C21CA
:100F900011D14FF0EF014FF01100318020804FF060
:100FA000780000F0B9F91D48A4F80090C0F8A852E4
:100FB00021E0D38001E099421DD1E220208004206D
:100FC0003080642000F0B6F9A4F800A057463580C0
:100FD0000A2000F0A1F92780A6F800800C2000F07C
:100FE0009BF925800A2000F097F9BA2020803580EF
:100FF000FF2000F009F9002000F082F84FF6FF70A2
:10100000FFF78CFE06B0BDE8F087000030380240E4
:101010000014024000000020FE1F006C00804242CD
:1010200070B5C8180B4D401E84B22B460A482E7866
:101030001B8A821C26B9ED88A5F5C856633E03D0ED
:101040000380E0B2108070BD21440380491EC8B205
:10105000F8E7000000000020FE1F006CF0B5134A06
:10106000CFB21146D488124BCE890D8A991CA4F5B3
:10107000134CBCF1410C11D0A4F5C857633F0CD1FF
:1010800014461778248967B1641E1E80E0B2088078
:101090001D80907A401EC0B20880F0BD1D800F8078
:1010A000F0BD201A401E1E80C0B2F0E700000020F4
:1010B000FE1F006C024803498089088070470000C9
:1010C00000000020FE1F006C024A1080901C01806E
:1010D00070470000FE1F006CFEE7FEE7704700004F
:1010E0000549A1200880881C4FF6FF71008801EA9D
:1010F0000021084370470000FE1F006C704700008D
:101100002DE9F0071E492C232A242B25CA88F02616
:101110004FF4A07741F6631C4FF4F0794FF4487A0E
:1011200049F2413848B101200870424519D18B81FC
:10113000CC810D820F814E811CE000200870424559
:1011400005D18B81CC810D820E814F8112E06245E9
:1011500010D18B81CD810C82A1F80890A1F80AA052
:1011600008E0624506D18B81CC810D82A1F808A0F0
:10117000A1F80A90BDE8F007002000F003B80000D5
:101180000000002030B51F4C002122462578D2886F
:1011900049F24133012D01D01DB10EE09A4204D035
:1011A0000BE0A2F5C855633D07D1082805D2DFE85A
:1011B00000F0161812140C19100E082812D2DFE8CD
:1011C00000F0110406080A0C0E1080210AE04021EC
:1011D00008E0C02106E0202104E0602102E0A02117
:1011E00000E0E02136209A4201D141F00801FFF7EA
:1011F0006BFF63892289BDE8304000210846FFF774
:101200000FBF0000000000200349BE200880891C99
:101210000020088070470000FE1F006CFFF7BAB97D
:1012200030B593B030216846FFF704F814210CA8BC
:10123000FFF700F81D480025016841F0805101606A
:10124000006800F0805011901948016841F4804115
:1012500001600068022400F4804011900120009099
:10126000000401908001CDE9064008AA0420A821CD
:1012700082E813000B906846FFF7E2FA08B172B6F5
:10128000FEE70CA90F2081E831004FF4A0500F9029
:101290004FF48050109005210CA8FFF707FA0028A2
:1012A00001D072B6FEE713B030BD000040380240F6
:1012B000007000400248016841F47001016070470D
:1012C00088ED00E0FEE70907090E002804DB00F1C5
:1012D000E02080F80014704700F00F0000F1E020DB
:1012E00080F8141D704702E008C8121F08C1002AC8
:1012F000FAD170477047002001E001C1121F002A97
:10130000FBD1704710B50420FFF7D8FC0149A82095
:10131000087010BD1200002070B5054600244FF47F
:101320007A7603E0304600F005F8641CAC42F9D34D
:1013300070BD000070B54FF0E024002265690949D6
:10134000A36909784843A1699942FCD002D2A3EB72
:10135000010302E0A5EB010633441A440B46824226
:10136000F1D370BD1200002008B5FFF71BF9FFF79D
:1013700057FF2048016841F004010160016801F055
:1013800004010091016841F080010160016801F0F1
:1013900080010091016841F001010160006800F0E6
:1013A00001000090FFF7AEFFFFF7A2FD12494FF4D6
:1013B000784012A308800A2118220846FFF736FD5C
:1013C00013A3102228211420FFF730FD14A31822A4
:1013D00050211E20FFF72AFD15A310226E21322076
:1013E000FFF724FD17A3102282213220FFF71EFDF4
:1013F000FEE700003038024002000020496C6C75A6
:101400006D696E6174692053544D333200000000E1
:10141000417574686F723A436C65766572000000BE
:10142000342E5446544C4344205445535400000039
:101430004B4559303A53637265656E205465737439
:10144000000000004B4559313A4E756D62657220BF
:1014500054657374000000000000000000000000EC
:101460000000000000000404040404040004000060
:1014700000140A0A0000000000000000000014141C
:101480003F140A3F0A0A000000041E1505060C144A
:10149000150F0400000012150D0A142C2A1200006A
:1014A0000000040A0A1E1515093600000002020198
:1014B00000000000000000000020100808080808D4
:1014C00008102000000204080808080808040200A8
:1014D00000000004150E0E150400000000000404B6
:1014E000041F0404040000000000000000000000CD
:1014F0000002020100000000001F000000000000C8
:1015000000000000000000000002000000100808B9
:10151000080404020202010000000E111111111151
:10152000110E00000000040604040404040E000070
:1015300000000E1111080402011F000000000E112E
:10154000100C1010110E00000000080C0A0A091EF1
:101550000818000000001F01010F1010110E0000FC
:1015600000000E09010F1111110E000000001F09EB
:10157000080404040404000000000E11110E1111EF
:10158000110E000000000E1111111E10120E0000AD
:101590000000000004000000000400000000000043
:1015A00000040000000404000020100804020408E5
:1015B00010200000000000001F00001F00000000BD
:1015C00000020408102010080402000000000E11A0
:1015D000110804040004000000000E111915151D67
:1015E000011E0000000004040C0A0A1E1233000051
:1015F00000000F12120E1212120F000000001E1136
:1016000001010101110E000000000F12121212124E
:10161000120F000000001F120A0E0A02121F000023
:1016200000001F120A0E0A020207000000001C122E
:1016300001013911120C000000003312121E1212A7
:101640001233000000001F0404040404041F0000FF
:1016500000003E08080808080809070000003712C3
:101660000A060A0A123700000000070202020202FC
:10167000223F000000001B1B1B1B15151515000049
:1016800000003B1216161A1A1217000000000E1165
:1016900011111111110E000000000F12120E0202A2
:1016A0000207000000000E1111111117190E180089
:1016B00000000F12120E0A121237000000001E1155
:1016C00001060810110F000000001F150404040497
:1016D000040E00000000331212121212120C00004D
:1016E00000003312120A0A0C040400000000151551
:1016F000150E0A0A0A0A000000001B0A0A04040A5E
:101700000A1B000000001B0A0A040404040E000067
:1017100000001F0908040402121F0000001C04043A
:101720000404040404041C00000202020404080867
:1017300008100000000E08080808080808080E0035
:1017400000040A000000000000000000000000008B
:10175000000000000000003F000400000000000046
:101760000000000000000000000C121C123C0000F1
:1017700000000302020E1212120E00000000000010
:10178000001C1202021C000000001810101C121293
:10179000123C000000000000000C121E021C0000A1
:1017A00000003804041E0404041E000000000000B1
:1017B000003C120C021E221C00000302020E121238
:1017C000123700000000040000060404040E0000AC
:1017D00000000800000C08080808080700000302C1
:1017E000023A0A0E12370000000007040404040441
:1017F000041F000000000000000F15151515000063
:1018000000000000000F121212370000000000005C
:10181000000C1212120C000000000000000F121247
:10182000120E020700000000001C1212121C1038D9
:1018300000000000001B060202070000000000007C
:10184000001E020C101E000000000004040E040420
:101850000418000000000000001B1212123C0000DF
:10186000000000000037120A0C0400000000000015
:101870000015150E0A0A000000000000001B0A04F3
:101880000A1B0000000000000037120A0C040403C9
:1018900000000000001E0804041E000000180808D4
:1018A00008040808080818000808080808080808B4
:1018B00008080808000604040408040404040600D8
:1018C00002251800000000000000000000000000D9
:1018D0000000000000000000000000000000000800
:1018E00008080808080800001818000000486C24C0
:1018F00012000000000000000000000000000024B2
:1019000024247F1212127F12121200000000081C01
:101910002A2A0A0C1828282A2A1C08080000002253
:10192000251515152A585454542200000000000CA7
:101930001212120A76252911916E00000006060483
:101940000300000000000000000000000040201024
:1019500010080808080808101020400000020408B9
:1019600008101010101010080804020000000000F9
:1019700008086B1C1C6B0808000000000000000039
:10198000080808087F080808080000000000000098
:101990000000000000000000060604030000000034
:1019A00000000000FE000000000000000000000039
:1019B000000000000000000006060000000080405B
:1019C0004020201010080804040202000000001843
:1019D00024424242424242422418000000000008D1
:1019E0000E08080808080808083E00000000003C2F
:1019F0004242422020100804427E00000000003CC9
:101A00004242201820404042221C000000000020DA
:101A10003028242422227E20207800000000007E2E
:101A20000202021A26404042221C00000000003838
:101A30002402021A26424242241800000000007EBE
:101A40002222101008080808080800000000003CC6
:101A50004242422418244242423C00000000001846
:101A60002442424264584040241C00000000000010
:101A70000000181800000000181800000000000006
:101A800000000008000000000008080400000040FA
:101A9000201008040204081020400000000000008C
:101AA00000007F0000007F00000000000000000236
:101AB0000408102040201008040200000000003C30
:101AC0004242464020101000181800000000001C80
:101AD000225A555555552D42221C00000000000881
:101AE00008181414243C224242E700000000001FA2
:101AF0002222221E22424242221F00000000007CBD
:101B00004242010101010142221C00000000001FAD
:101B10002242424242424242221F00000000003F55
:101B20004212121E12120242423F00000000003F09
:101B30004212121E12120202020700000000003CB4
:101B40002222010101712122221C0000000000E775
:101B5000424242427E42424242E700000000003ED2
:101B60000808080808080808083E00000000007C73
:101B700010101010101010101010110F000000772E
:101B800022120A0E0A121222227700000000000719
:101B90000202020202020202427F000000000077FD
:101BA000363636362A2A2A2A2A6B0000000000E33D
:101BB00046464A4A52525262624700000000001CE8
:101BC0002241414141414141221C00000000003FAF
:101BD000424242423E020202020700000000001C94
:101BE0002241414141414D53321C60000000003F01
:101BF0004242423E1212222242C700000000007CF4
:101C00004242020418204042423E00000000007F91
:101C10004908080808080808081C0000000000E738
:101C20004242424242424242423C0000000000E73F
:101C30004242222424141418080800000000006BFB
:101C4000494949495555362222220000000000E743
:101C5000422424181818242442E7000000000077CA
:101C60002222141408080808081C00000000007E46
:101C70002120101008040442423F000000780808A8
:101C80000808080808080808080878000000020288
:101C9000040408080810102020204040001E1010E6
:101CA000101010101010101010101E0000384400FA
:101CB0000000000000000000000000000000000024
:101CC0000000000000000000000000FF0006080007
:101CD0000000000000000000000000000000000004
:101CE0000000003C4278444242FC00000000000337
:101CF0000202021A26424242261A00000000000098
:101D00000000003844020202443800000000006075
:101D1000404040784442424264D800000000000045
:101D20000000003C427E0202423C0000000000F045
:101D30008808087E08080808083E00000000000027
:101D40000000007C22221C023C42423C00000003B6
:101D50000202023A4642424242E700000000000C02
:101D60000C00000E08080808083E000000000030C3
:101D700030000038202020202020221E00000003F8
:101D800002020272120A1612227700000000000EF0
:101D90000808080808080808083E000000000000BD
:101DA0000000007F9292929292B700000000000023
:101DB0000000003B4642424242E7000000000000B3
:101DC0000000003C42424242423C00000000000051
:101DD0000000001B26424242221E020700000000B3
:101DE0000000007844424242447840E00000000095
:101DF000000000774C040404041F000000000000F1
:101E00000000007C42023C40423E00000000000016
:101E10000008083E0808080808300000000000001C
:101E2000000000634242424262DC00000000000009
:101E3000000000E74224241408080000000000000D
:101E4000000000EB49495555222200000000000027
:101E50000000007624181818246E0000000000000E
:101E6000000000E7422424141808080700000000BE
:101E70000000007E22100808447E000000C02020E0
:101E800020202010202020202020C0001010101022
:101E9000101010101010101010101010000608086C
:101EA0000808081008080808080806000C32C200D4
:101EB0000000000000000000000000000000000022
:101EC0000000000000000000000000000000000012
:101ED0000000000000000000000000000000000002
:101EE00000000000000000000000000000000000F2
:101EF00000000000E000E000E000E000E000400042
:101F00004000400040004000400000000000000091
:101F1000E000E000E0000000000000000000000021
:101F2000600660063003980188004400000000004D
:101F300000000000000000000000000000000000A1
:101F40000000000000000000000000000000000091
:101F50000000000000000802080208020802FE0754
:101F6000FE070802080204010401FE07FE0704013F
:101F70000401040104010000000000000000000052
:101F8000000040004000F00158034C034C034C009B
:101F900058007000E000C001C00140034C034C0336
:101FA0004C034801F0004000400000000000000029
:101FB0000000000000000E030A01110191009100D1
:101FC000D1005100FA03AE026004500450045804DA
:101FD00048048802840300000000000000000000A4
:101FE0000000000000003800640064006400640029
:101FF000A4031C010C011A019200B300E30063006A
:10200000C300A6041C030000000000000000000044
:102010000C001C001000100008000600000000006A
:1020200000000000000000000000000000000000B0
:1020300000000000000000000000000000000000A0
:1020400000040002000180018000C000C0006000A8
:10205000600060006000600060006000C000C000C0
:102060008000800100010002000400000000000068
:10207000020004000800180010003000300060006A
:1020800060006000600060006000600030003000B0
:10209000100018000800040002000000000000000A
:1020A00000000000000000004000400040004E0E14
:1020B0005C07F001F0015C074E0E4000400040005C
:1020C0000000000000000000000000000000000010
:1020D0000000000000000000000040004000400040
:1020E00040004000FE0F4000400040004000400023
:1020F00000000000000000000000000000000000E0
:1021000000000000000000000000000000000000CF
:1021100000000000000000000000000000000000BF
:102120000C001C0010001000080006000000000059
:10213000000000000000000000000000000000009F
:1021400000000000FE07000000000000000000008A
:10215000000000000000000000000000000000007F
:10216000000000000000000000000000000000006F
:10217000000000000000000000000000000000005F
:102180001C001C001C0000000000000000000000FB
:10219000000400060002000300010001800080002E
:1021A00040004000600020002000100010000800E7
:1021B00008000C00040006000200000000000000FF
:1021C000000000000000F00098010C030C0306065C
:1021D00006060606060606060606060606060C039C
:1021E0000C039801F0000000000000000000000057
:1021F000000000000000400060007C006000600003
:1022000060006000600060006000600060006000CE
:1022100060006000FC0300000000000000000000FF
:10222000000000000000F80084010203060306031A
:10223000000380018001C000200010000802040299
:102240000202FE03FE030000000000000000000088
:102250000000000000007800C400860186018601AD
:102260008001C00070008001000100030603060326
:1022700006038401F80000000000000000000000D8
:102280000000000000018001C001C001A001900118
:1022900090018801840184018201FE078001800190
:1022A00080018001E0070000000000000000000045
:1022B000000000000000FC03FC0304000400040014
:1022C0000400F4008C01040300030003060306036A
:1022D00082018401F80000000000000000000000FE
:1022E000000000000000E00118030C030C000400D3
:1022F0000600E60116030E06060606060606040696
:102300000C021803F00000000000000000000000B4
:10231000000000000000F807FC070C0204010401A3
:10232000000180008000400040004000600060002C
:10233000600060006000000000000000000000007D
:10234000000000000000F8010C0306060606060661
:102350000E023C03F000CC01040306060606060646
:1023600006060C03F0010000000000000000000061
:10237000000000000000F0000C010C03060206063D
:102380000606060606078C0678060006000300030C
:102390000C018C017800000000000000000000002B
:1023A0000000000000000000000000000000E0004D
:1023B000E000E0000000000000000000000000005D
:1023C000E000E000E000000000000000000000006D
:1023D00000000000000000000000000000000000FD
:1023E000600060000000000000000000000000002D
:1023F00000006000600040002000000000000000BD
:1024000000000000000400020001800040002000E5
:1024100010000800040008001000200040008000A8
:1024200000010002000400000000000000000000A5
:10243000000000000000000000000000000000009C
:10244000FE070000000000000000FE070000000082
:10245000000000000000000000000000000000007C
:102460000000000004000800100020004000800070
:102470000001000200040002000180004000200072
:102480001000080004000000000000000000000030
:1024900000000000F0010C03020602060606060614
:1024A00000038001600020002000200000000000E8
:1024B00070007000700000000000000000000000CC
:1024C000000000000000E00138060804CC0A640B9C
:1024D00026092609160916099609960566030C08A9
:1024E0000C041802E00100000000000000000000E1
:1024F000000000000000600060007000D000D0000C
:10250000C800880188018801F8010403040304035A
:10251000040606060F0F0000000000000000000087
:10252000000000000000FF0086010603060306030A
:1025300006038601FE0006030602060606060606D8
:1025400006060603FF010000000000000000000076
:10255000000000000000E00718060C040C04040052
:1025600006000600060006000600060006040C042D
:102570000C021801F0000000000000000000000044
:102580000000000000007F00860106030603060627
:1025900006060606060606060606060606060603DE
:1025A0000603C6017F0000000000000000000000DC
:1025B000000000000000FF030602060406000600FB
:1025C00086008600FE0086008600060006000604DF
:1025D00006040602FF0300000000000000000000E7
:1025E000000000000000FF030603060406040600C6
:1025F00086008600FE0086008600060006000600B3
:10260000060006000F0000000000000000000000AF
:10261000000000000000F00218030C020C0204008D
:102620000600060006000600C60F060306030C039C
:102630000C031803F0000000000000000000000080
:102640000000000000000F0F06060606060606063C
:1026500006060606FE070606060606060606060621
:10266000060606060F0F0000000000000000000034
:10267000000000000000FC036000600060006000DB
:10268000600060006000600060006000600060004A
:1026900060006000FC03000000000000000000007B
:1026A000000000000000F00F800180018001800127
:1026B0008001800180018001800180018001800112
:1026C0008001800180018601C6007C0000000000BE
:1026D000000000000000CF0706018600460046000B
:1026E000260036003E006E00E600C600C6018601E8
:1026F000060306078F0F0000000000000000000026
:102700000000000000000F000600060006000600A2
:102710000600060006000600060006000600060485
:1027200006040602FF030000000000000000000095
:102730000000000000000F0F0E070E070E079A069C
:102740009A069A069A065A06720672067206720669
:1027500022062206270F00000000000000000000F3
:10276000000000000000070E0E040E041A041A04F4
:10277000320462046204C204C20482050207020732
:10278000020602060704000000000000000000002E
:10279000000000000000F00098010C030C02060687
:1027A00006060606060606060606060606060C02C7
:1027B0000C039801F0000000000000000000000081
:1027C000000000000000FF010603060606060606DC
:1027D000060606060603FE010600060006000600C1
:1027E000060006000F0000000000000000000000CE
:1027F000000000000000F00098010C030C02060627
:1028000006060606060606060606060676064C02B6
:102810008C038801F0018007000300000000000025
:10282000000000000000FF0106030606060606067B
:1028300006060603FE006600C600C6008601860185
:10284000060306030F0E0000000000000000000059
:10285000000000000000F8040C070604060406004F
:102860000E003C00F000C003000300060206020652
:1028700006060E03F2010000000000000000000048
:10288000000000000000FE076204610861086000AB
:102890006000600060006000600060006000600038
:1028A00060006000F0000000000000000000000078
:1028B0000000000000000F0E0604060406040604D3
:1028C00006040604060406040604060406040604B8
:1028D00006040C02F80100000000000000000000E7
:1028E0000000000000001F0F0E060C020C020C027C
:1028F0000C011801180118011801B000B000B00057
:10290000F000600060000000000000000000000017
:10291000000000000000EF0E660466046602660216
:10292000E602EC02EC02DC01DC01DC01DC019C01D2
:1029300088008800880000000000000000000000FF
:102940000000000000009E070C0318011801980009
:10295000B000700060006000E000D000D00198017D
:1029600088010C039E07000000000000000000002A
:102970000000000000001F0F0E060C020C011801E1
:102980001801B000B00070006000600060006000DE
:1029900060006000F801000000000000000000007E
:1029A000000000000000FC07040382038001C00156
:1029B000C000C00060006000300030001800180443
:1029C0001C040C02FE0300000000000000000000D8
:1029D000E007200020002000200020002000200030
:1029E00020002000200020002000200020002000E7
:1029F0002000200020002000E00700000000000070
:102A0000000000000400080008000800100010008A
:102A10002000200020004000400080008000800056
:102A2000000100010002000200020004000000009A
:102A3000FC0080008000800080008000800080001A
:102A40008000800080008000800080008000800086
:102A50008000800080008000FC000000000000007A
:102A6000E000B001080200000000000000000000CB
:102A70000000000000000000000000000000000056
:102A80000000000000000000000000000000000046
:102A90000000000000000000000000000000000036
:102AA0000000000000000000000000000000000026
:102AB00000000000000000000000FF0F0000000008
:102AC000180060000000000000000000000000008E
:102AD00000000000000000000000000000000000F6
:102AE00000000000000000000000000000000000E6
:102AF00000000000000000000000000000000000D6
:102B0000F0010C030C03E00338030C030603060377
:102B100006038E0B7C0F0000000000000000000088
:102B20000000000008000E000C000C000C000C005F
:102B3000CC013C031C060C060C060C060C060C060D
:102B40000C021C03F4010000000000000000000063
:102B50000000000000000000000000000000000075
:102B6000F0008C018C0186010600060006000602BA
:102B70000C020C01F000000000000000000000004A
:102B800000000000000280030003000300030003B4
:102B900078038C030C0306030603060306030603EF
:102BA00004038C0778010000000000000000000012
:102BB0000000000000000000000000000000000015
:102BC000E001180308060C06FC070C000C000C00C2
:102BD00018043802E00100000000000000000000BE
:102BE000000000000000C003600630063000300026
:102BF000FE03300030003000300030003000300084
:102C000030003000FC010000000000000000000067
:102C100000000000000000000000000000000000B4
:102C2000F00E98090C030C030C039801F8000C003B
:102C30007C00F803060606060E07F80100000000F7
:102C40000000000008000E000C000C000C000C003E
:102C5000EC011C030C030C030C030C030C030C030E
:102C60000C030C039E0700000000000000000000A1
:102C70000000000000006000600000000000000094
:102C80007C00600060006000600060006000600028
:102C900060006000FC030000000000000000000075
:102CA0000000000000008001800100000000000022
:102CB000F00180018001800180018001800180019C
:102CC0008001800180018001CC007C0000000000B8
:102CD0000000000008000E000C000C000C000C00AE
:102CE000CC038C00CC004C006C007C00DC00CC00E1
:102CF0008C018C019E070000000000000000000015
:102D00000000000040007C00600060006000600087
:102D100060006000600060006000600060006000B3
:102D200060006000FC0300000000000000000000E4
:102D30000000000000000000000000000000000093
:102D40007707EE0666066606660666066606660689
:102D500066066606EF0E000000000000000000009E
:102D60000000000000000000000000000000000063
:102D7000CE013C030C030C030C030C030C030C03EB
:102D80000C030C039E070000000000000000000080
:102D90000000000000000000000000000000000033
:102DA000F00098010C03060606060606060606064F
:102DB0000C030C03F0000000000000000000000005
:102DC0000000000000000000000000000000000003
:102DD000EE011C030C060C060C060C060C060C0679
:102DE0000C031C03EC010C000C003E000000000072
:102DF00000000000000000000000000000000000D3
:102E000078028C030C03060306030603060306037D
:102E100004038C03780300030003C00700000000D4
:102E200000000000000000000000000000000000A2
:102E30009F075806380018001800180018001800DE
:102E400018001800FF000000000000000000000053
:102E50000000000000000000000000000000000072
:102E6000F00718060C040C003800F001800304067B
:102E700004060C03FC01000000000000000000003C
:102E800000000000000000002000200030003000A2
:102E9000FE013000300030003000300030003000E3
:102EA00030023002E00100000000000000000000DD
:102EB0000000000000000000000000000000080208
:102EC0008E030C030C030C030C030C030C030C0308
:102ED0000C039C07780100000000000000000000C7
:102EE00000000000000000000000000000000000E2
:102EF0003E0F1C0618021802300130013001E000BC
:102F0000E000E000400000000000000000000000C1
:102F100000000000000000000000000000000000B1
:102F2000EF0DC604C604E604EC04AC039C039C034A
:102F30009C030801080100000000000000000000E0
:102F40000000000000000000000000000000000081
:102F5000BE0718019801B00070006000E000D000CA
:102F600098018803DE070000000000000000000058
:102F70000000000000000000000000000000000051
:102F8000BE071C0118011801B000B000B0006000BD
:102F9000600040002000200014001C000000000021
:102FA0000000000000000000000000000000000021
:102FB000FC038401C401C000E00060007000300424
:102FC00038041806FC0300000000000000000000A8
:102FD000000380018000800080008000800080006D
:102FE0008000C0002000C0008000800080008000C1
:102FF000800080008000800100030000400040004D
:1030000040004000400040004000400040004000C0
:1030100040004000400040004000400040004000B0
:103020004000400040004000400040000000000020
:103030000C0018001000100010001000100010000C
:103040001000300040003000100010001000100090
:1030500010001000100018000C00000000001C0000
:103060002400420882040007000000000000000065
:103070000000000000000000000000000000000050
:103080000000000000000000000000000000000040
:10309000000000000102030406070809BC30000814
:1030A0000000002024000000E6120008E0300008C4
:1030B0002400002054040000F61200080000000064
:1030C000FFFF000000000000000000000000000002
:1030D0000100000010000000000000000024F400C7
:040000050800018965
:00000001FF
