:020000040800F2
:1000000078040020A101000827100008790D0008DD
:1000100025100008AD020008511100080000000082
:100020000000000000000000000000002B1000088D
:10003000F90200080000000029100008A9100008BB
:10004000BB010008BB010008BB010008BB010008A0
:10005000BB010008BB010008BB010008BB01000890
:10006000BB010008BB010008BB010008BB01000880
:10007000BB010008BB010008BB010008BB01000870
:10008000BB010008BB010008BB010008BB01000860
:10009000BB010008BB010008BB010008BB01000850
:1000A000BB010008BB010008BB010008BB01000840
:1000B000BB010008BB010008BB010008BB01000830
:1000C000BB010008BB010008BB010008BB01000820
:1000D000BB010008BB010008BB010008BB01000810
:1000E000BB010008BB010008BB010008BB01000800
:1000F000BB010008BB010008BB010008BB010008F0
:10010000BB010008BB010008BB010008BB010008DF
:10011000BB010008BB010008BB010008BB010008CF
:10012000BB010008BB010008BB010008BB010008BF
:10013000BB010008BB010008BB010008BB010008AF
:10014000BB010008BB010008BB010008BB0100089F
:10015000BB010008BB010008BB010008BB0100088F
:10016000BB010008BB010008BB010008BB0100087F
:10017000BB010008BB010008BB0100080000000033
:10018000BB010008BB010008DFF810D000F07CF8CC
:1001900000480047F5110008AFF300807804002004
:1001A0000648804706480047FEE7FEE7FEE7FEE711
:1001B000FEE7FEE7FEE7FEE7FEE7FEE74111000887
:1001C000890100082DE9F05F0546002092469B4614
:1001D00088460646814640241BE02846414647465D
:1001E000224600F041F853465A46C01A914110D3B6
:1001F00011461846224600F028F82D1A67EB010830
:100200004F4622460120002100F01FF817EB00099D
:100210004E41201EA4F10104DFDC484631462A4647
:100220004346BDE8F09FD2B201E000F8012B491E21
:10023000FBD270470022F6E710B513460A46044683
:100240001946FFF7F0FF204610BD202A04DB203AB4
:1002500000FA02F1002070479140C2F1200320FA19
:1002600003F3194390407047202A04DB203A21FA17
:1002700002F00021704721FA02F3D040C2F12002BF
:100280009140084319467047064C074D06E0E06868
:1002900040F0010394E8070098471034AC42F6D3CD
:1002A000FFF776FF7412000894120008FEE70000C2
:1002B0000F4810B5026886B0002142F0400202608B
:1002C00000680C4C00F04000059080200090012058
:1002D000CDE90101022003906946204600F094F820
:1002E00000228021204600F087F906B010BD0000F2
:1002F00030380240001802407047000030B5B3F5B6
:10030000804F05D06FF0704140F82210002030BDC2
:100310008C690B688D6823434C688989240144EA01
:100320000524234343EA014150F82230014C234085
:100330001943E9E70000F0CF10B50A6850F8223001
:1003400023F0010340F822308C68082C23D00023CE
:100350004A682243CC681C430B6922431A434B6909
:100360000E4C1A43CB691A430B6A1A434B6A1A4361
:100370008B6A1A43CB6A1A430B6B1A438B6913437C
:10038000CA6B09681A4350F82130A343134340F85D
:100390002130002010BD4023DAE700007FFF0F006E
:1003A00030B5D1E9003443EA04138C688D89240206
:1003B00044EA054423430C8A094D00EB820005EB17
:1003C000045423430C7D6D0105EB046489692343C8
:1003D0000B43416801F040410B434360002030BDB6
:1003E0000000F0FF70B5044600F00CF90546601CF3
:1003F00002D004480078044400F004F9401BA042F5
:10040000FAD370BD040000202DE9F84FDFF8BCA13D
:100410000022012503264FF00F090AF1040BAAF16F
:10042000040E00BF0B6805FA02F42340A34270D10A
:100430000F7907F00307012F01D0022F16D187682B
:100440004FEA420806FA08FC27EA0C07D1F80CC06C
:100450000CFA08FC4CEA070CC0F808C04768A74330
:100460000C79C4F3001494403C4344600C79E44399
:10047000A4070AD0C4684FEA420C06FA0CF7BC4342
:100480008F6807FA0CF72743C7600C7904F0030460
:10049000022C12D1D40800EB840CDCF82040570762
:1004A000FF0E09FA07F824EA0804D1F8108008FAC8
:1004B00007F848EA0408CCF8208004684FEA420CA8
:1004C00006FA0CF7BC430F7907F0030707FA0CF79D
:1004D000274307604C6814F4403F70D03C4C2768B9
:1004E00047F480472760246822F0030704F480441F
:1004F0000094384C07EB040CDCF8084897074FEAE7
:10050000177809FA08F7BC43334FB84202D10027E5
:1005100024E054E0314FB84201D101271EE0304FB2
:10052000B84201D1022719E02E4FB84201D103276A
:1005300014E02D4FB84201D104270FE02B4FB842F1
:1005400001D105270AE02A4FB84201D1062705E06C
:10055000284FB84201D1072700E0082707FA08F71B
:100560002743CCF80878DAF800405746D1F804C0A1
:100570009C435FEACC2C00D51C433C60DBF8004078
:100580005F46D1F804C09C435FEA8C2C00D51C4325
:100590003C60DEF800407746D1F804C09C435FEA37
:1005A0008C3C00D51C433C60084F083F3C68D1F8A8
:1005B00004C09C435FEACC3C00D51C433C60521C09
:1005C000102AFFF42FAFBDE8F88F0000083C01406F
:1005D0004438024000300140000002400004024064
:1005E00000080240000C02400010024000140240CB
:1005F00000180240001C02400AB1816170470904E2
:10060000FBE70000014880687047000004000020FC
:10061000024881680278114481607047040000201C
:100620000B4810B5016841F400710160016841F4A4
:1006300080610160016841F480710160032000F075
:1006400061F80F2000F006F800F024F8002010BD3B
:10065000003C024070B50D4D04464FF47A71287885
:10066000B1FBF0F00A490968B1FBF0F000F070FB53
:1006700048B9102C07D200222146501E00F022F863
:1006800000206C6070BD012070BD000004000020DF
:10069000100000200A4808B5016841F4804101605B
:1006A000006800F4804000900548001F016841F098
:1006B00080510160006800F08050009008BD00008B
:1006C00044380240F0B40E4B1B680C46C3F30223BF
:1006D000C3F10705042D00D90425191D072901D2EE
:1006E000002300E0DB1E012606FA05F1491E214029
:1006F00099409E40761E16403143F0BC00F029BD63
:100700000CED00E0064900F0070208684FF6FF0311
:10071000184040EA0220034A104308607047000076
:100720000CED00E00000FA052DE9F0470E4605004B
:1007300065D0DFF81481D8F80000F7B200F00700A8
:10074000B04207D288F80070D8F8000000F0070027
:10075000B04254D128683D4C810712D5400703D5DB
:10076000206840F4E05020602878000703D5206816
:1007700040F4604020602068A96820F0F000084341
:1007800020602878C0072DD03049686808390128D2
:1007900012D0022813D0032811D009688907002934
:1007A0002DDA216821F0030101432160FFF72AFFC0
:1007B000814641F2883A0EE009688903EFE709684B
:1007C0008901ECE7FFF71EFFA0EB0901514502D9B3
:1007D0000320BDE8F0872068696800F00C00B0EBEA
:1007E000810FEFD1D8F80010404601F00701B14267
:1007F00007D90770006800F00700B04201D001205F
:10080000E7E72878400705D52068E96820F4E0503C
:10081000084320602878000706D52068296920F45D
:10082000604040EAC100206000F018F82168084AE2
:10083000C1F30311515CC8400649086006480068CE
:10084000FFF708FF0020C4E7003C024008380240E0
:10085000641200081000002008000020154810B5A0
:10086000006810F00C02144813D04110042A0FD075
:10087000082A0ED10F4C241F2268236802F03F0281
:100880005B0207D52068C0F38810A0FB010106E0D9
:10089000084610BD2168C1F38811A1FB00010023A7
:1008A000FFF790FC2168C1F30141491C4900B0FBEE
:1008B000F1F010BD083802400024F4002DE9F84F93
:1008C00004006ED02078DFF84C93C007A9F104052E
:1008D0004AD009F104000168C1F38101012908D05F
:1008E0000068C0F3810002280AD1D9F80000400254
:1008F00006D52868800337D560680028E1D033E04A
:100900006068B0F5803F10D0B0F5A02F286810D0F7
:1009100020F480302860286820F4802028606068F7
:10092000A8B1FFF76FFE06460DE0286840F480305E
:10093000F4E740F480202860F7E700BFFFF762FE8D
:10094000801B642873D828688003F7D50CE0FFF774
:1009500059FE064605E000BFFFF754FE801B6428E1
:10096000F0D828688003F7D42078DFF8AC828007BD
:100970004FF0000A3ED5A748001D016811F00C0F8A
:1009800008D00068C0F3810002280BD1D9F800001C
:10099000400207D42868800716D5E068012800D1F6
:1009A00012E033E1E068B8B10120C8F80000FFF7B9
:1009B00029FE064605E000BFFFF724FE801B022843
:1009C000C0D828688007F7D52868216920F0F8008A
:1009D00040EAC10028600DE0C8F800A0FFF712FE51
:1009E000064604E0FFF70EFE801B02281FD8286889
:1009F0008007F7D42078000722D5864F87486169A1
:100A0000703771B101210160FFF7FCFD064604E07B
:100A1000FFF7F8FD801B022809D838688007F7D552
:100A20000EE0C0F800A0FFF7EDFD064605E082E00D
:100A3000FFF7E8FD801B02287DD838688007F7D4CF
:100A40002078400768D5DFF8CCB100270BF13C0BCC
:100A5000DBF80000C0000BD4DBF8001041F080513F
:100A6000CBF80010DBF80000012700F08050009068
:100A70006B4E3068C00510D4306840F48070306030
:100A8000FFF7C0FD009005E0FFF7BCFD0099401A9C
:100A9000022850D83068C005F6D55E4EA0686C3686
:100AA00001280FD00528306810D020F001003060F8
:100AB000306820F004003060A068B8B1FFF7A2FDF4
:100AC00000900FE0306840F00100F4E740F00400CF
:100AD0003060F7E7FFF796FD0099411A41F2883040
:100AE000814266D830688007F4D50EE0FFF78AFDB2
:100AF000009007E0FFF786FD0099411A41F2883027
:100B0000814256D830688007F4D42FB1DBF800104A
:100B100021F08051CBF80010A069C8B33D49091DF0
:100B20000968C1F3810102294AD00228504607D042
:100B3000C8F8600000E03CE0FFF764FD04463BE0DD
:100B40004746C8F86000FFF75DFD064605E000BFB8
:100B5000FFF758FD801B02282BD828688001F7D4A6
:100B6000D4E907010843A16A2E4A490802EB014172
:100B7000626A41EA8211084394F82C1040EA01614C
:100B8000C9F8001001203866FFF73CFD044606E076
:100B90003EE000BFFFF736FD001B022809D8286899
:100BA0008001F7D534E000BFFFF72CFD001B0228C1
:100BB00002D90320BDE8F88F28688001F4D427E02B
:100BC0000128F7D0D9F80000E26900F480019142D1
:100BD0001CD1226A00F03F01914217D147F6C07143
:100BE000626A0140B1EB821F10D1A26A4FF0FF335D
:100BF00000F4403103EB5202B1EB024F06D194F8FE
:100C00002C1000F07060B0EB016F01D00120D1E733
:100C10000020CFE70438024000004742800E4742E0
:100C2000007000400000FFFF70B515460E4604003E
:100C300003D094F8490010B107E0012070BD0020F6
:100C400084F84800204600F01DF804F108012068EF
:100C5000FFF772FB3146A2682068FFF7A1FBD4E9D9
:100C600001022946236BFFF749FB2168A06851F870
:100C7000202042F0010241F82020012084F84900A0
:100C8000002070BD284810B5016886B041F0010110
:100C90000160006800F001000590234808380168F1
:100CA00041F008010160016801F008010591016847
:100CB00041F010010160016801F010010591016827
:100CC00041F020010160016801F0200105910168F7
:100CD00041F0400101600068694600F04000059065
:100CE0004CF233700090022001900120029003200A
:100CF00003900C2004900D48FFF786FB4FF68070A0
:100D0000009069460A48FFF77FFB0420094C0090D9
:100D100069462046FFF778FBA014009069462046FC
:100D2000FFF772FB06B010BD38380240000C0240DD
:100D300000100240001802404FF0E021042808692A
:100D400003D020F004000861704740F00400FAE787
:100D500010B5401EB0F1807F01D3012010BD4FF0CF
:100D6000E02460610F21601700F0F3F90020A0611A
:100D700007202061002010BDFEE700000549D320B8
:100D80000880881C4FF6FF71008801EA00210843A3
:100D900070470000FE1F006C0C4800B5026887B069
:100DA000002142F020020260006800F0200005905F
:100DB0004FF46070CDE90001012002900220039001
:100DC00069460348FFF720FB07B000BD30380240FA
:100DD0000014024070B50546084800242146868864
:100DE000C0884643204600F0B9F800F0C3F8044834
:100DF00001E00580641CB442FBD370BD6400002098
:100E00000020006C00B500F0A9F800F0B3F802482B
:100E100002490088088000BD000000200020006C0E
:100E200000B518488FB04FF020410160164941606D
:100E30000621816000211022C160C0E90412816195
:100E40001202C161C0E909129200C0E90B129201BD
:100E50004163C0E90E120F20CDE907013C20099043
:100E60000920CDE900010D9108200391069102901F
:100E70006A4607A90348FFF7D7FE3220FFF7B2FA08
:100E80000FB000BD14000020040100A030B52848B8
:100E900087B0016841F02001016000684FF4806470
:100EA00000F0200005900120CDE9004002900320D1
:100EB000039069461F48FFF7A7FAFFF7B1FFFFF756
:100EC0005DFF1D490880A0F51341413919D14FF04C
:100ED0002040D0F81C1121F00F01C0F81C11D0F8EF
:100EE0001C1121F47061C0F81C11D0F81C1141F0E4
:100EF0000301C0F81C11D0F81C1141F40071C0F8B6
:100F00001C110E4DEF22A91C11200A802880782088
:100F100000F048F92920288006481830046000F0C5
:100F200085F84FF6FF70FFF755FF07B030BD0000A2
:100F3000303802400014024064000020FE1F006CA4
:100F4000C818054A034B911C401E9B891380C0B2F0
:100F50000880704764000020FE1F006C034B0448AB
:100F60009B89821C0380C8B21080704764000020F7
:100F7000FE1F006C0248034900890880704700008A
:100F800064000020FE1F006C024A1080901C01804B
:100F900070470000FE1F006C70B51F4886B000212E
:100FA000026842F010020260026802F0100205922C
:100FB000026842F010020260026802F0100205921C
:100FC000026842F0400202600068144D00F04000E8
:100FD0000590182000900120CDE901010220039026
:100FE00069462846FFF710FA0D4E6C1569463046E3
:100FF0000094FFF709FA012208212846FFF7FCFABE
:10100000012210212846FFF7F7FA01222146304637
:10101000FFF7F2FA06B070BD30380240001002400F
:1010200000180240FEE7FEE77047704707482C2192
:1010300001812A2141812B218181F02181804FF47E
:10104000A071C180002000F003B8000064000020FF
:1010500010B50021082812D2DFE800F011040608BC
:101060000A0C0E1080210AE0402108E0C02106E0B1
:10107000202104E0602102E0A02100E0E021094CF1
:1010800036202288A2F51343413B01D141F00801EB
:10109000FFF77AFFE388A2880021BDE810400846E8
:1010A000FFF74EBF64000020FFF7B2BA30B593B02F
:1010B00030216846FFF7BEF814210CA8FFF7BAF8F4
:1010C0001D480025016841F080510160006800F072
:1010D000805011901948016841F480410160006816
:1010E000022400F48040119001200090000401903F
:1010F0008001CDE9064008AA0420A82182E8130057
:101100000B906846FFF7DAFB08B172B6FEE70CA950
:101110000F2081E831004FF4A0500F904FF4805021
:10112000109005210CA8FFF7FFFA002801D072B635
:10113000FEE713B030BD00004038024000700040B0
:101140000248016841F470010160704788ED00E0D9
:10115000FEE70907090E002804DB00F1E02080F813
:101160000014704700F00F0000F1E02080F8141D1B
:10117000704702E008C8121F08C1002AFAD1704760
:101180007047002001E001C1121F002AFBD1704707
:1011900010B50420FFF7D0FD0149A820087010BD4C
:1011A0000200002070B5054600244FF47A7603E073
:1011B000304600F005F8641CAC42F9D370BD000065
:1011C00070B54FF0E024002265690949A3690978E8
:1011D0004843A1699942FCD002D2A3EB010302E08B
:1011E000A5EB010633441A440B468242F1D370BD8D
:1011F0000200002008B5FFF713FAFFF757FF184861
:10120000016841F004010160016801F004010091EE
:10121000016841F080010160016801F080010091E6
:10122000016841F001010160006800F001000090D8
:10123000FFF7AEFFFFF7B0FDFFF7AEFEFFF738F8A0
:10124000FFF724FE00210846FFF7DCFD0121002006
:10125000FFF7D8FD64210846FFF7D4FDFEE7000044
:1012600030380240000000000000000001020304CA
:10127000060708099412000800000020140000006E
:1012800072110008A8120008140000206404000075
:1012900082110008000000000100000010000000A2
:0812A000000000000024F4002E
:040000050800018965
:00000001FF
